:100000000C9462000C948A000C948A000C948A0070
:100010000C948A000C948A000C948A000C948A0038
:100020000C948A000C948A000C948A000C94F103BE
:100030000C948A000C948A000C948A000C948A0018
:100040000C94A7030C948A000C9475030C944F0332
:100050000C948A000C948A000C948A000C948A00F8
:100060000C948A000C948A000000000023002600F3
:10007000290000000000240027002A0000000000E2
:10008000250028002B0004040404040404040202D4
:100090000202020203030303030301020408102007
:1000A0004080010204081020010204081020000012
:1000B0000008000201000003040700000000000027
:1000C0000000F20411241FBECFEFD8E0DEBFCDBF89
:1000D00011E0A0E0B1E0E2EEF4E102C005900D9283
:1000E000A234B107D9F722E0A2E4B1E001C01D9229
:1000F000AC31B207E1F710E0C2E6D0E004C02197CE
:10010000FE010E947708C136D107C9F70E94860513
:100110000C946F0A0C940000AF92BF92CF92DF92C2
:10012000EF92FF920F931F93CF93DF936C017B01AC
:100130008B01040F151FEB015E01AE18BF08C0173D
:10014000D10759F06991D601ED91FC910190F081B0
:10015000E02DC6010995892B79F7C501DF91CF9173
:100160001F910F91FF90EF90DF90CF90BF90AF90D5
:100170000895CF93DF93FC014481558160817181A3
:100180008CE491E00E948C00EC0142E050E068E1D8
:1001900071E08CE491E00E948C008C0F9D1FDF9138
:1001A000CF910895FC01538D448D252F30E0842F8D
:1001B00090E0821B930B541710F0CF96089501978F
:1001C0000895FC01918D828D981761F0A28DAE0F7C
:1001D000BF2FB11D5D968C91928D9F5F9F73928F03
:1001E00090E008958FEF9FEF0895FC01918D828D2F
:1001F000981731F0828DE80FF11D858D90E00895FC
:100200008FEF9FEF0895FC01918D228D892F90E053
:10021000805C9F4F821B91098F73992708958CE40E
:1002200091E00E94030121E0892B09F420E0822F54
:10023000089580E090E0892B29F00E940F01811140
:100240000C9400000895FC01A48DA80FB92FB11DD6
:10025000A35ABF4F2C91848D90E001968F739927FC
:10026000848FA689B7892C93A089B1898C918370DA
:1002700080648C93938D848D981306C00288F389D3
:10028000E02D80818F7D80830895EF92FF920F9300
:100290001F93CF93DF93EC0181E0888F9B8D8C8D32
:1002A00098131AC0E889F989808185FF15C09FB726
:1002B000F894EE89FF896083E889F98980818370E9
:1002C000806480839FBF81E090E0DF91CF911F9198
:1002D0000F91FF90EF900895F62E0B8D10E00F5FB9
:1002E0001F4F0F731127E02E8C8D8E110CC00FB68F
:1002F00007FCFACFE889F989808185FFF5CFCE0127
:100300000E942301F1CFEB8DEC0FFD2FF11DE35A7D
:10031000FF4FF0829FB7F8940B8FEA89FB898081A9
:100320008062CFCFCF93DF93EC01888D8823B9F023
:10033000AA89BB89E889F9898C9185FD03C08081F0
:1003400086FD0DC00FB607FCF7CF8C9185FFF2CF6D
:10035000808185FFEDCFCE010E942301E9CFDF919F
:10036000CF91089590E0FC01E255FF4F2491FC01EC
:10037000E656FF4F3491FC01EA57FF4FE491EE231C
:10038000C9F0222339F0233001F1A8F4213019F10A
:10039000223029F1F0E0EE0FFF1FE458FF4FA59146
:1003A000B4918FB7F894EC91611126C030953E233B
:1003B0003C938FBF08952730A9F02830C9F024302E
:1003C00049F7809180008F7D03C0809180008F77F6
:1003D00080938000DFCF84B58F7784BDDBCF84B579
:1003E0008F7DFBCF8091B0008F778093B000D2CF0C
:1003F0008091B0008F7DF9CF3E2BDACFCF93DF9382
:1004000090E0FC01E656FF4F24918A579F4FFC0174
:1004100084918823D1F090E0880F991FFC01EE5859
:10042000FF4FA591B491FC01E458FF4FC591D491C1
:1004300061110EC09FB7F8948C91E22FE0958E2346
:100440008C932881E223E8839FBFDF91CF910895A9
:100450008FB7F894EC91E22BEC938FBFF6CF892BFA
:1004600079F41092800082E08093810010928500E0
:1004700010928400B19A80916F00826080936F0027
:100480000895CF93DF93EC0188819981009711F053
:100490000E941909198218821D821C821B821A82ED
:1004A000DF91CF910895FC0180819181009711F037
:1004B0000C94190908950F931F93CF93DF93EC01C8
:1004C00088819981009759F02A813B812617370747
:1004D00030F081E0DF91CF911F910F9108958B0152
:1004E0006F5F7F4F0E94A209009759F0998388831C
:1004F0001B830A832C813D81232B59F7FC01108239
:10050000E8CF80E0E7CFEF92FF920F931F93CF9356
:10051000DF936115710541F480E0DF91CF911F9168
:100520000F91FF90EF90089541155105B1F07B01B7
:10053000EC010C811D81040F151FB8010E945B02A4
:10054000882351F3288139818C819D81B701820FE5
:10055000931F0E94680A1D830C8381E0DECFEF9217
:10056000FF920F931F93CF93DF9300D000D000D062
:100570001F92CDB7DEB77C01CB014AE08E010F5F41
:100580001F4FB8010E94AF07F80101900020E9F762
:100590003197AF01401B510BB801C7010E94830284
:1005A00027960FB6F894DEBF0FBECDBFDF91CF9177
:1005B0001F910F91FF90EF900895EF92FF920F938C
:1005C0001F93CF93DF93EC017B018A01BA010E9454
:1005D0005B0281110BC0CE010E944102CE01DF916E
:1005E000CF911F910F91FF90EF9008951D830C8381
:1005F000B701888199810E94680AF0CFFB010190C0
:100600000020E9F73197AF01461B570B0C94DD0230
:100610000F931F93CF93DF93EC0160E088810E94DA
:10062000B20183E090E00197F1F761E088810E94D8
:10063000B20183E290E00197F1F760E088810E94C7
:10064000B201898190E0FC01E656FF4F6491FC0104
:10065000EA57FF4FE491F0E0EE0FFF1FE859FF4F1C
:100660008591949100E412E42FE030E0462F0E943F
:10067000AD04611571058105910529F06F5F7F4F0C
:100680008F4F9F4F9F702BE330E040E050E00E947F
:100690003A08C901DF91CF911F910F9108951F92E0
:1006A0000F920FB60F9211242F933F934F935F93A6
:1006B0006F937F938F939F93AF93BF93EF93FF932A
:1006C0008CE491E00E942301FF91EF91BF91AF91E3
:1006D0009F918F917F916F915F914F913F912F915A
:1006E0000F900FBE0F901F9018951F920F920FB68C
:1006F0000F9211242F938F939F93EF93FF93E09189
:100700005C01F0915D018081E0916201F0916301F3
:1007100082FD1BC09081809165018F5F8F73209156
:100720006601821741F0E0916501F0E0E45BFE4F65
:10073000958F80936501FF91EF919F918F912F91FC
:100740000F900FBE0F901F9018958081F4CF1F92CD
:100750000F920FB60F9211242F933F938F939F9375
:10076000AF93BF938091480190914901A0914A01B4
:10077000B0914B013091470123E0230F2D3758F5FD
:100780000196A11DB11D20934701809348019093CC
:100790004901A0934A01B0934B018091430190918C
:1007A0004401A0914501B09146010196A11DB11DE2
:1007B0008093430190934401A0934501B093460177
:1007C000BF91AF919F918F913F912F910F900FBE4D
:1007D0000F901F90189526E8230F0296A11DB11DBA
:1007E000D2CF1F920F920FB60F9211242F933F93E7
:1007F0004F935F936F937F938F939F93AF93BF9329
:10080000CF93DF93EF93FF9380914201C0910D024C
:10081000D0E087FF24C01092850010928400809160
:1008200042018F5F8093420180914201082E000CAB
:10083000990B8C179D0724F4809142018C30C4F1F0
:100840008091840090918500049680349C4908F43E
:100850007AC08091840090918500049676C0809142
:100860004201082E000C990B8C179D07C4F6E091ED
:1008700042018E2FEE0F990BFC01EE0FFF1FE80FC8
:10088000F91FE751FE4F808186FFC9CFE0914201F9
:100890008E2FEE0F990BFC01EE0FFF1FE80FF91FD3
:1008A000E751FE4F808160E08F730E94B201B7CFA5
:1008B0002091840030918500E09142018E2FEE0F4F
:1008C000990BFC01EE0FFF1FE80FF91FE751FE4FD8
:1008D00081819281820F931F909389008093880079
:1008E000E09142018E2FEE0F990BFC01EE0FFF1FDE
:1008F000E80FF91FE751FE4F808186FF11C0E0919C
:1009000042018E2FEE0F990BFC01EE0FFF1FE80F37
:10091000F91FE751FE4F808161E08F730E94B201A1
:10092000FF91EF91DF91CF91BF91AF919F918F9107
:100930007F916F915F914F913F912F910F900FBEDB
:100940000F901F90189580E49CE990938900809304
:1009500088008FEF80934201E3CFCF92DF92EF9236
:10096000FF920F931F93E82FF92F05C00150110933
:100970002109310961F1908196239417B9F305C0DB
:10098000015011092109310911F190819623941325
:10099000F7CFC12CD12CE12CF12C0AC08FEFC81A53
:1009A000D80AE80AF80A0C151D052E053F0579F04E
:1009B00080818623841791F36C2D7D2D8E2D9F2DA4
:1009C0001F910F91FF90EF90DF90CF90089560E01E
:1009D00070E080E090E01F910F91FF90EF90DF902A
:1009E000CF90089510924F0110924E0188EE93E03F
:1009F000A0E0B0E08093500190935101A093520188
:100A0000B09353018AE091E090934D0180934C01A3
:100A100085EC90E0909359018093580184EC90E02C
:100A200090935B0180935A0180EC90E090935D017C
:100A300080935C0181EC90E090935F0180935E0174
:100A400082EC90E0909361018093600186EC90E0ED
:100A50009093630180936201109265011092660188
:100A6000109267011092680180910D028C3008F09D
:100A700045C091E0980F90930D028093150290E08D
:100A8000FC01EE0FFF1FE80FF91FE751FE4F88EB47
:100A90009BE09283818380910D028C3098F591E0E8
:100AA000980F90930D028093120290E0FC01EE0FDC
:100AB000FF1FE80FF91FE751FE4F88EB9BE0928381
:100AC000818361E084E00E94FE0160E085E00E9495
:100AD000FE0184E08093100285E08093110261E0C2
:100AE00082E00E94FE0160E083E00E94FE0182E05D
:100AF00080930E0283E080930F0208958FEF80931E
:100B00001502C9CF8FEF80931202DBCFCF93DF9313
:100B1000CDB7DEB763970FB6F894DEBF0FBECDBF7B
:100B2000789484B5826084BD84B5816084BD85B5C8
:100B3000826085BD85B5816085BD80916E008160D4
:100B400080936E001092810080918100826080937A
:100B5000810080918100816080938100809180007C
:100B60008160809380008091B10084608093B100A7
:100B70008091B00081608093B00080917A008460A1
:100B800080937A0080917A00826080937A008091CD
:100B90007A00816080937A0080917A0080688093E7
:100BA0007A001092C100809115028C3008F043C089
:100BB00061E089E00E94FE0180911502282F30E05B
:100BC000F901EE0FFF1FE20FF31FE751FE4F908177
:100BD000907C9960908310921602109217022CE07C
:100BE000622F0E946B08829FB001112430E020E048
:100BF000AB01420F531FFA01EE0FFF1FE40FF51F69
:100C0000E751FE4F908196FD08C02F5F3F4F2C307B
:100C1000310571F790E00E942F02E09115028E2FAE
:100C200090E0FC01EE0FFF1FE80FF91FE751FE4FA8
:100C3000808180648083809112028C3008F043C0F0
:100C400061E08BE00E94FE0180911202282F30E0CB
:100C5000F901EE0FFF1FE20FF31FE751FE4F9081E6
:100C6000907C9B60908310921302109214022CE0EF
:100C7000622F0E946B08829FB001112430E020E0B7
:100C8000AB01420F531FFA01EE0FFF1FE40FF51FD8
:100C9000E751FE4F908196FD08C02F5F3F4F2C30EB
:100CA000310571F790E00E942F02E09112028E2F21
:100CB00090E0FC01EE0FFF1FE80FF91FE751FE4F18
:100CC000808180648083E0915C01F0915D0182E02D
:100CD0008083E0915801F09159011082E0915A010E
:100CE000F0915B018FEC808310926401E0916001D0
:100CF000F091610186E08083E0915E01F0915F01F7
:100D0000808180618083E0915E01F0915F0180814C
:100D100088608083E0915E01F0915F01808180684E
:100D20008083E0915E01F0915F0180818F7D8083FF
:100D300068E8E62EF12C78E5C72E72E0D72EE4EBBA
:100D40008E2E912CA12CB12CF0E06F2EF0E07F2E96
:100D50001A8219821C821B821E821D826BE171E045
:100D6000CE0101960E94FE0280E192E00E940803FB
:100D70008C011E861D86188A1F861A8A198A6FE1C1
:100D800071E0CE010D960E94FE0218861F821A861F
:100D900019861C861B866D857E856115710531F06F
:100DA00049895A89CE0107960E94DD02B801CE0119
:100DB00007960E94AF02811104C0CE0107960E94DF
:100DC00041024D815E8169817A81CE0107960E9440
:100DD0008302811104C0CE0107960E944102CE0118
:100DE00007960E94B900CE0107960E945302CE01D9
:100DF0000D960E945302CE0101960E9453021A8260
:100E000019821C821B821E821D826BE171E0CE0161
:100E100001960E94FE028EE092E00E9408038C017F
:100E20001E861D86188A1F861A8A198A61E371E058
:100E3000CE010D960E94FE0218861F821A86198620
:100E40001C861B866D857E856115710531F049898B
:100E50005A89CE0107960E94DD02B801CE0107969D
:100E60000E94AF02811104C0CE0107960E94410288
:100E70004D815E8169817A81CE0107960E9483024D
:100E8000811104C0CE0107960E944102CE0107964F
:100E90000E94B900CE0107960E945302CE010D9622
:100EA0000E945302CE0101960E9453023091120219
:100EB0003B8B3C3008F047C0809113028701081B30
:100EC000110987FD1395000F111F000F111F180145
:100ED000012E000C44085508809114029601281B2D
:100EE000310987FD3395220F331F220F331F032E45
:100EF000000C440B550B2219330944095509A8E28B
:100F0000B0E00E94F807A50194010E94D907220EC3
:100F1000331E441E551E201631060CF4180182E0C3
:100F2000281A3108220C331C2FB7F8943B89832FE1
:100F300090E0FC01EE0FFF1FE80FF91FE751FE4F95
:100F4000328221822FBF6114710409F401CF0E9403
:100F50000F01882309F4FCCE0E940000F9CEBB27C4
:100F6000FB015527AA27880F991FAA1FA41710F065
:100F7000A41B83955051B9F7A05DAA3308F0A95D71
:100F8000A193009779F7B111B1931192CB010C9411
:100F9000C907DC01FC01672F71917723E1F73297D4
:100FA00004C07C916D9370836291AE17BF07C8F344
:100FB0000895052E97FB1EF400940E94F00757FD3C
:100FC00007D00E943A0807FC03D04EF40C94F007B7
:100FD00050954095309521953F4F4F4F5F4F089565
:100FE00090958095709561957F4F8F4F9F4F089595
:100FF0000E945C08A59F900DB49F900DA49F800D4A
:10100000911D112408952F923F924F925F926F92FB
:101010007F928F929F92AF92BF92CF92DF92EF9288
:10102000FF920F931F93CF93DF93CDB7DEB7CA1B09
:10103000DB0B0FB6F894DEBF0FBECDBF09942A8834
:10104000398848885F846E847D848C849B84AA84DC
:10105000B984C884DF80EE80FD800C811B81AA8169
:10106000B981CE0FD11D0FB6F894DEBF0FBECDBF34
:10107000ED010895A1E21A2EAA1BBB1BFD010DC0B4
:10108000AA1FBB1FEE1FFF1FA217B307E407F50738
:1010900020F0A21BB30BE40BF50B661F771F881F14
:1010A000991F1A9469F760957095809590959B01AA
:1010B000AC01BD01CF010895A29FB001B39FC00153
:1010C000A39F700D811D1124911DB29F700D811D74
:1010D0001124911D0895991B79E004C0991F96175A
:1010E00008F0961B881F7A95C9F780950895EE0F32
:1010F000FF1F0590F491E02D09940F931F93CF9358
:10110000DF938230910510F482E090E0E0911A02C2
:10111000F0911B0230E020E0B0E0A0E0309799F4BD
:101120002115310509F44AC0281B390B243031053B
:10113000D8F58A819B816115710589F1FB01938343
:101140008283FE0111C040815181028113814817C1
:101150005907E0F04817590799F4109761F0129673
:101160000C93129713961C933296CF01DF91CF9177
:101170001F910F91089500931A0210931B02F4CF50
:101180002115310551F04217530738F0A901DB0151
:101190009A01BD01DF01F801C1CFEF01F9CF9093B2
:1011A0001B0280931A02CDCFFE01E20FF31F819341
:1011B00091932250310939832883D7CF2091180287
:1011C00030911902232B41F4209102013091030147
:1011D00030931902209318022091000130910101EF
:1011E0002115310541F42DB73EB7409104015091CE
:1011F0000501241B350BE0911802F0911902E2174A
:10120000F307A0F42E1B3F0B2817390778F0AC0129
:101210004E5F5F4F2417350748F04E0F5F1F509306
:10122000190240931802819391939FCFF0E0E0E080
:101230009CCFCF93DF930097E9F0FC0132971382A4
:101240001282A0911A02B0911B02ED0130E020E061
:101250001097A1F420813181820F931F20911802F1
:10126000309119022817390709F061C0F09319026B
:10127000E0931802DF91CF910895EA01CE17DF07BE
:10128000E8F54A815B819E0141155105B1F7E901FD
:10129000FB83EA8349915991C40FD51FEC17FD07D1
:1012A00061F4808191810296840F951FE9019983F1
:1012B0008883828193819B838A83F0E0E0E01296A9
:1012C0008D919C9113970097B9F52D913C911197B1
:1012D000CD010296820F931F2091180230911902BE
:1012E0002817390739F6309751F510921B021092E2
:1012F0001A02B0931902A0931802BCCFD383C28301
:1013000040815181840F951FC817D90761F44E5F42
:101310005F4F88819981480F591F518340838A818B
:101320009B81938382832115310509F0B0CFF0931F
:101330001B02E0931A029ECFFD01DC01C0CF138295
:101340001282D7CFB0E0A0E0E8EAF9E00C940508FB
:101350008C01009751F4CB010E947D088C01C801DB
:10136000CDB7DEB7E0E10C942108FC01E60FF71FD2
:101370009C0122503109E217F30708F49DC0D901FE
:10138000CD91DC911197C617D70798F0C530D105DC
:1013900030F3CE0104978617970708F3C61BD70BC7
:1013A0002297C193D1936D937C93CF010E94190929
:1013B000D6CF5B01AC1ABD0A4C018C0E9D1EA091CC
:1013C0001A02B0911B02512C412CF12CE12C1097E8
:1013D00031F580911802909119028815990509F04C
:1013E0005CC04616570608F058C0809100019091E5
:1013F0000101009741F48DB79EB7409104015091CF
:101400000501841B950BE817F90708F055C0F09308
:101410001902E0931802F90171836083A0CF8D91C6
:101420009C91119712966C90129713967C9013973B
:10143000A815B90559F56C0142E0C40ED11CCA14B7
:10144000DB0420F1AC014A195B09DA011296159709
:1014500080F06282738251834083D9016D937C93C3
:10146000E114F10471F0D7011396FC93EE931297F7
:1014700076CF22968C0F9D1FF90191838083F30113
:10148000EFCFF0931B02E0931A0269CF481659067A
:1014900008F42C017D01D3019ACFCB010E947D0875
:1014A0007C01009749F0AE01B8010E945F0AC801B3
:1014B0000E941909870153CF10E000E050CFFB01D3
:1014C000DC0102C001900D9241505040D8F70895C0
:1014D000FB01DC0101900D920020E1F70895F894E2
:0214E000FFCF3C
:1014E20000001C0280000000000045018C00D200B8
:1014F20092010301E100F5000D0A0020636D004432
:10150200697374C3A26E63696120636F6D703A2060
:101512000044697374616E6369612074616D3A207D
:021522000000C7
:00000001FF
