:100000000C94DF000C9407010C9407010C94070179
:100010000C9407010C9407010C9407010C94070140
:100020000C9407010C9407010C9407010C94070130
:100030000C9407010C9407010C9407010C94070120
:100040000C9426050C9407010C94F4040C94CE0433
:100050000C9407010C9407010C9407010C94070100
:100060000C9407010C94070100407A10F35A00A089
:10007000724E18090010A5D4E80000E87648170071
:1000800000E40B54020000CA9A3B000000E1F505B1
:10009000000080969800000040420F000000A086FB
:1000A00001000000102700000000E803000000002D
:1000B0006400000000000A000000000001000000D1
:1000C00000002C76D888DC674F0823DFC1DFAE59EB
:1000D000E1B1B796E5E3E453C63AE651997696E87E
:1000E000E6C28426EB898C9B62ED407C6FFCEFBC02
:1000F0009C9F40F2BAA56FA5F490055A2AF75C932D
:100100006B6CF9676DC11BFCE0E40D47FEF520E662
:10011000B500D0ED902E0300943577050080841E45
:10012000080000204E0A000000C80C333333330FA0
:10013000986E12831141EF8D2114893BE65516CF3D
:10014000FEE6DB18D1844B381BF77C1D901DA4BB49
:10015000E424203284725E228100C9F124ECA1E5FE
:100160003D270000000023002600290000000000B9
:10017000240027002A0000000000250028002B0092
:10018000040404040404040402020202020203033D
:100190000303030301020408102040800102040845
:1001A00010200102040810200000000800020100D5
:1001B000000304070000000000000000B505112442
:1001C0001FBECFEFD8E0DEBFCDBF11E0A0E0B1E0B1
:1001D000E8EBFAE102C005900D92A636B107D9F717
:1001E00022E0A6E6B1E001C01D92AC31B207E1F712
:1001F00010E0CFEDD0E004C02197FE010E94620B19
:10020000CE3DD107C9F70E940E060C945A0D0C94EE
:100210000000AF92BF92CF92DF92EF92FF920F93C6
:100220001F93CF93DF936C017B018B01040F151F8C
:10023000EB015E01AE18BF08C017D10759F06991F4
:10024000D601ED91FC910190F081E02DC601099558
:10025000892B79F7C501DF91CF911F910F91FF9005
:10026000EF90DF90CF90BF90AF900895CF93DF9342
:10027000FC01448155816081718183E791E00E9496
:100280000901EC0142E050E068E171E083E791E0B0
:100290000E9409018C0F9D1FDF91CF910895FC01F1
:1002A000538D448D252F30E0842F90E0821B930BDB
:1002B000541710F0CF96089501970895FC01918D81
:1002C000828D981761F0A28DAE0FBF2FB11D5D9684
:1002D0008C91928D9F5F9F73928F90E008958FEF26
:1002E0009FEF0895FC01918D828D981731F0828DDA
:1002F000E80FF11D858D90E008958FEF9FEF089531
:10030000FC01918D228D892F90E0805C9F4F821B94
:1003100091098F739927089583E791E00E948001E6
:1003200021E0892B09F420E0822F089580E090E0FD
:10033000892B29F00E948C0181110C9400000895F2
:10034000FC01A48DA80FB92FB11DA35ABF4F2C914A
:10035000848D90E001968F739927848FA689B78941
:100360002C93A089B1898C91837080648C93938D38
:10037000848D981306C00288F389E02D80818F7DDB
:1003800080830895EF92FF920F931F93CF93DF9393
:10039000EC0181E0888F9B8D8C8D98131AC0E889C1
:1003A000F989808185FF15C09FB7F894EE89FF8990
:1003B0006083E889F98980818370806480839FBF2E
:1003C00081E090E0DF91CF911F910F91FF90EF902E
:1003D0000895F62E0B8D10E00F5F1F4F0F7311273E
:1003E000E02E8C8D8E110CC00FB607FCFACFE88979
:1003F000F989808185FFF5CFCE010E94A001F1CF60
:10040000EB8DEC0FFD2FF11DE35AFF4FF0829FB7EC
:10041000F8940B8FEA89FB8980818062CFCFCF93DC
:10042000DF93EC01888D8823B9F0AA89BB89E8891C
:10043000F9898C9185FD03C0808186FD0DC00FB6C2
:1004400007FCF7CF8C9185FFF2CF808185FFEDCF40
:10045000CE010E94A001E9CFDF91CF91089590E0F5
:10046000FC01E855FE4F2491FC01EC56FE4F3491FF
:10047000FC01E058FE4FE491EE23C9F0222339F04D
:10048000233001F1A8F4213019F1223029F1F0E0F4
:10049000EE0FFF1FEA58FE4FA591B4918FB7F89465
:1004A000EC91611126C030953E233C938FBF089597
:1004B0002730A9F02830C9F0243049F78091800016
:1004C0008F7D03C0809180008F7780938000DFCF85
:1004D00084B58F7784BDDBCF84B58F7DFBCF8091D2
:1004E000B0008F778093B000D2CF8091B0008F7D25
:1004F000F9CF3E2BDACFCF93DF9390E0FC01EC569F
:10050000FE4F249180589E4FFC0184918823D1F0A6
:1005100090E0880F991FFC01E459FE4FA591B4911A
:10052000FC01EA58FE4FC591D49161110EC09FB7EE
:10053000F8948C91E22FE0958E238C932881E2230E
:10054000E8839FBFDF91CF9108958FB7F894EC9126
:10055000E22BEC938FBFF6CF3FB7F89480916B01FD
:1005600090916C01A0916D01B0916E0126B5A89B90
:1005700005C02F3F19F00196A11DB11D3FBFBA2F35
:10058000A92F982F8827BC01CD01620F711D811DF5
:10059000911D42E0660F771F881F991F4A95D1F77A
:1005A00008958F929F92AF92BF92CF92DF92EF9277
:1005B000FF924B015C010E94AC026B017C010E9426
:1005C000AC026C197D098E099F09683E7340810554
:1005D0009105A8F321E0821A9108A108B10888EEDC
:1005E000C80E83E0D81EE11CF11C81149104A10403
:1005F000B10429F7FF90EF90DF90CF90BF90AF90BC
:100600009F908F9008950F931F93CF93C82F8B01C6
:1006100061E00E942F0228EE33E0D8010E945B0BBC
:1006200024EB30E040E050E00E94D40A28513C4FD7
:100630004F4F5F4F220F331F220F331F25503109B9
:10064000C9010197F1F760E08C2F0E942F026AE048
:1006500070E080E090E0CF911F910F910C94D10257
:100660000F931F93CF93DF93EC01888199810097BB
:1006700059F02A813B812617370730F081E0DF915E
:10068000CF911F910F9108958B016F5F7F4F0E9453
:100690008D0C009759F0998388831B830A832C81E2
:1006A0003D81232B59F7FC011082E8CF80E0E7CF92
:1006B000EF92FF920F931F93CF93DF936115710514
:1006C00041F480E0DF91CF911F910F91FF90EF9067
:1006D000089541155105B1F07B01EC010C811D819C
:1006E000040F151FB8010E943003882351F328819D
:1006F00039818C819D81B701820F931F0E94530D18
:100700001D830C8381E0DECFCF93DF93EC018881E2
:100710009981009711F00E94040C198218821D82A1
:100720001C821B821A82DF91CF910895EF92FF9273
:100730000F931F93CF93DF93CDB7DEB764970FB6B8
:10074000F894DEBF0FBECDBF7C01CB01BA018E0194
:100750000F5F1F4F22E044E00E94EF07FC01019071
:100760000020E9F73197AF01481B590BBC01C701C5
:100770000E945803811103C0C7010E948403C7016E
:1007800064960FB6F894DEBF0FBECDBFDF91CF9158
:100790001F910F91FF90EF900895EF92FF920F93AA
:1007A0001F93CF93DF9300D000D000D01F92CDB71E
:1007B000DEB77C01CB014AE08E010F5F1F4FB8010D
:1007C0000E940D08F80101900020E9F73197AF0170
:1007D000401B510BB801C7010E945803811103C08F
:1007E000C7010E948403C70127960FB6F894DEBFA5
:1007F0000FBECDBFDF91CF911F910F91FF90EF9072
:100800000895CF93DF93EC01FB0144815581608112
:1008100071810E945803811103C0CE010E9484039C
:10082000CE01DF91CF910895EF92FF920F931F9326
:10083000CF93DF93EC017B01198218821B821A820D
:100840001D821C82FB0101900020E9F731978F0186
:10085000061B170BB8010E943003811109C0CE019D
:10086000DF91CF911F910F91FF90EF900C94840333
:100870001D830C83B70188819981DF91CF911F91EE
:100880000F91FF90EF900C94530DFC0180819181AA
:10089000009711F00C94040C0895EF92FF920F93BF
:1008A0001F93CF93DF93EC01198218821B821A8267
:1008B0001D821C828617970719F1FB0100811181A7
:1008C00001151105E9F0E480F580B7010E943003BD
:1008D000811109C0CE01DF91CF911F910F91FF903F
:1008E000EF900C948403FD82EC82B8018881998199
:1008F000DF91CF911F910F91FF90EF900C94530DCA
:10090000DF91CF911F910F91FF90EF9008950F937A
:100910001F93CF93DF93EC0160E088810E942F0248
:1009200083E090E00197F1F761E088810E942F0257
:1009300083E290E00197F1F760E088810E942F0246
:10094000898190E0FC01EC56FE4F6491FC01E05877
:10095000FE4FE491F0E0EE0FFF1FEE59FE4F859140
:10096000949100E412E42FE030E0462F0E947005DD
:10097000611571058105910529F06F5F7F4F8F4FDC
:100980009F4F9F702BE330E040E050E00E942A0B25
:10099000C901DF91CF911F910F9108951F920F927E
:1009A0000FB60F9211242F933F934F935F936F9342
:1009B0007F938F939F93AF93BF93EF93FF9383E7BF
:1009C00091E00E94A001FF91EF91BF91AF919F91A3
:1009D0008F917F916F915F914F913F912F910F90E8
:1009E0000FBE0F901F9018951F920F920FB60F9287
:1009F00011242F938F939F93EF93FF93E0918301A3
:100A0000F09184018081E0918901F0918A0182FD59
:100A10001BC0908180918C018F5F8F7320918D011D
:100A2000821741F0E0918C01F0E0ED58FE4F958F78
:100A300080938C01FF91EF919F918F912F910F9057
:100A40000FBE0F901F9018958081F4CF1F920F92C8
:100A50000FB60F9211242F933F938F939F93AF93D1
:100A6000BF938091670190916801A0916901B09155
:100A70006A013091660123E0230F2D3758F5019666
:100A8000A11DB11D209366018093670190936801B9
:100A9000A0936901B0936A0180916B0190916C0100
:100AA000A0916D01B0916E010196A11DB11D8093C1
:100AB0006B0190936C01A0936D01B0936E01BF9197
:100AC000AF919F918F913F912F910F900FBE0F90FB
:100AD0001F90189526E8230F0296A11DB11DD2CFB5
:100AE000CF92DF92EF92FF920F931F93E82FF92F8F
:100AF00005C0015011092109310961F19081962346
:100B00009417B9F305C0015011092109310911F1F8
:100B1000908196239413F7CFC12CD12CE12CF12C8A
:100B20000AC08FEFC81AD80AE80AF80A0C151D0582
:100B30002E053F0579F080818623841791F36C2D73
:100B40007D2D8E2D9F2D1F910F91FF90EF90DF90A7
:100B5000CF90089560E070E080E090E01F910F91E9
:100B6000FF90EF90DF90CF900895E3E7F1E01382DC
:100B7000128288EE93E0A0E0B0E084839583A683A0
:100B8000B7838AE091E09183808385EC90E095873C
:100B9000848784EC90E09787868780EC90E0918B47
:100BA000808B81EC90E0938B828B82EC90E0958B34
:100BB000848B86EC90E0978B868B118E128E138E31
:100BC000148E61E084E00E947B0260E085E00E9478
:100BD0007B02E6E1F2E084E0808385E0818361E0EE
:100BE00082E00E947B0260E083E00E947B02E4E1FD
:100BF000F2E082E0808383E08183CF010E9487045A
:100C0000BC0190E080E00E94730A60931002709330
:100C1000110280931202909313020895CF93DF93F1
:100C2000CDB7DEB762970FB6F894DEBF0FBECDBF6B
:100C3000789484B5826084BD84B5816084BD85B5B7
:100C4000826085BD85B5816085BD80916E008160C3
:100C500080936E0010928100809181008260809369
:100C6000810080918100816080938100809180006B
:100C70008160809380008091B10084608093B10096
:100C80008091B00081608093B00080917A00846090
:100C900080937A0080917A00826080937A008091BC
:100CA0007A00816080937A0080917A0080688093D6
:100CB0007A001092C10061E089E00E947B0261E04D
:100CC0008AE00E947B02E0918301F091840182E03E
:100CD0008083E0917F01F09180011082E091810199
:100CE000F09182018FEC808310928B01E09187015B
:100CF000F091880186E08083E0918501F091860182
:100D0000808180618083E0918501F09186018081FE
:100D100088608083E0918501F09186018081806800
:100D20008083E0918501F091860180818F7D8083B1
:100D300000E010E06BE171E0CE0101960E94140426
:100D400086E192E00E9487047C016FE171E0CE01B0
:100D50000D960E941404BE01635F7F4FCE0107967B
:100D60000E944D04B701CE0107960E94CD03BE013B
:100D70006F5F7F4F0E9401040E943601CE010796EB
:100D80000E944504CE010D960E944504CE010196B5
:100D90000E9445046BE171E0CE0101960E941404AB
:100DA00084E192E00E9487047C0161E371E0CE015E
:100DB0000D960E941404BE01635F7F4FCE0107961B
:100DC0000E944D04B701CE0107960E94CD03BE01DB
:100DD0006F5F7F4F0E9401040E943601CE0107968B
:100DE0000E944504CE010D960E944504CE01019655
:100DF0000E9445046BE171E0CE0101960E9414044B
:100E0000C0906F01D0907001E0907101F09072017C
:100E100061E471E0CE010D960E941404BE01635F8F
:100E20007F4FCE0107960E944D04B701A601CE0167
:100E300007960E949603BE016F5F7F4F0E940104D8
:100E40000E943601CE0107960E944504CE010D9600
:100E50000E944504CE0101960E9445046BE171E0B9
:100E6000CE0101960E941404C0901002D09011028D
:100E7000E0901202F090130265E571E0CE010D964C
:100E80000E941404BE01635F7F4FCE0107960E944B
:100E90004D04B701A601CE0107960E949603BE013C
:100EA0006F5F7F4F0E9401040E943601CE010796BA
:100EB0000E944504CE010D960E944504CE01019684
:100EC0000E9445048091100290911102A09112029B
:100ED000B091130280936F0190937001A093710100
:100EE000B093720184E192E00E948704BC0190E01B
:100EF00080E00E94730A6093100270931102809345
:100F000012029093130286E192E00E9487044497B4
:100F100008F060C06AE570E089E090E00E94030399
:100F2000209110023091110240911202509113024F
:100F300060916F01709170018091710190917201C7
:100F40000E946E0A882341F084E192E00E948704A7
:100F500070E060E04E97E0F02091100230911102B5
:100F6000409112025091130260916F0170917001D3
:100F700080917101909172010E946E0A8823C1F0E4
:100F800084E192E00E9487044E9790F064EB70E059
:100F90008AE090E00E94030364EF71E080E090E05B
:100FA0000E94D1026AE570E08AE090E00E940303AB
:100FB00068EE73E080E090E00E94D1020115110517
:100FC00009F4B8CE0E948C01882309F4B3CE0E94A4
:100FD0000000B0CE70E060E089E090E0E7CFEF92F3
:100FE0000F931F93CF93DF93E80134E047FD34E183
:100FF000042E000C550B57FF03C051954195510924
:10100000E32E022F242FAE010E942708CE01DF918C
:10101000CF911F910F91EF900895BB27FB015527AA
:10102000AA27880F991FAA1FA41710F0A41B839545
:101030005051B9F7A05DAA3308F0A95DA1930097BC
:1010400079F7B111B1931192CB010C945E0AA9E02A
:10105000B0E0EDE2F8E00C94F90A6A01F22EB02E4D
:10106000102FFBE3AF2EA01608F41BE31F5F012F28
:1010700027E0AE014F5F5F4F0E948609BC01898166
:10108000982F9970913009F43FC09BE2E1FC04C0B5
:101090009E2D9170E0FC3AC05E2D5071E82FE870F3
:1010A00083FF46C084E0911101C083E0EF2DE81B6F
:1010B0008F1508F0E0E0D6018E2F20E2552351F184
:1010C000992329F0D6019C93C60101966C019601E3
:1010D0002D5F3F4FE2FE24C08EE4D6018C9391E455
:1010E00011969C93119712968C93D9018E2F90E2B2
:1010F00081111BC0E20FF32FF11D10828EEF9FEFC5
:101100002996ECE00C94150B9DE2C6CF90E2C4CF7B
:101110002D9381508111FCCFCE0ED11CE0E0D0CFB9
:101120008EE6D6018C9391E6DBCF9D938150E0CF84
:10113000482F447082FF3DC084E0911101C083E0DC
:101140008F1510F4EF2DE81BD6018E2F20E25523CA
:1011500009F1992329F0D6019C93C60101966C01EF
:1011600096012D5F3F4FE2FE1BC089E4D6018C93B0
:101170008EE411968C93119786E412968C93D90184
:101180008E2F90E2882309F4B5CF9D938150FACF3A
:101190002D9381508111FCCFCE0ED11CE0E0D9CF30
:1011A00089E6D6018C938EE611968C93119786E68C
:1011B000E4CF9B0177FF02C030E020E0A1E0B0E087
:1011C000911102C0B0E0A0E0F9013196AE0FBF1F4F
:1011D0008B2C912CBB2009F461C05401EFEFAE1AA7
:1011E000BE0AAA0DBB1DFA161B0619F014F04F2DEE
:1011F0004A1B511188C0E3FC59C07601A42FB0E20C
:10120000A1114FC0C40ED11C992309F45BC040E06A
:10121000D6011196F60190836D01552309F448C05B
:10122000012F060F9A81582F507184FF03C091330C
:1012300009F4015010160CF047C0093008F008E01E
:10124000EEE2FE2E5B01A01AB10885019194819413
:1012500091082F3F320729F4D601FC92F60131960E
:101260006F016217730794F1021713077CF5DB0116
:10127000A21BB30BAA24A394B12CAC0EBD1EAA0DC5
:10128000BB1D11968C9121503109D601119628155C
:101290003905F4F0F60180836D01DBCFB12CA12C70
:1012A000A0CFF701B1937F01A150AACF9111B0CF88
:1012B000D601942F50E302C05D9391509111FCCF61
:1012C000C40ED11C40E0ACCF01E0BACF80E3DBCF4D
:1012D0006217730731F4963388F4953311F455236C
:1012E00069F0F6018083FD01842F90E2811108C02E
:1012F000A40FB11D1C9290E080E002CF81E3F1CFFA
:1013000091938150F3CF911183CF8ACF283008F089
:1013100027E03327DA01990F311D87FD9160009690
:101320006105710539F432602E5F3D9330E32A95F3
:10133000E1F708959F3F30F080387105610509F0AD
:101340003C5F3C5F3D93913008F08068911DDF93D6
:10135000CF931F930F93FF92EF92192F987F96953B
:10136000E92F96959695E90FFF27EE53FF4F9927A2
:101370003327EE24FF24A701E70105900894079482
:1013800028F4360FE71EF81E491F511D660F771F00
:10139000881F991F0694A1F70590079428F4E70E7B
:1013A000F81E491F561FC11D770F881F991F661F02
:1013B0000694A1F70590079428F4F80E491F561FCC
:1013C000C71FD11D880F991F661F771F0694A1F7AD
:1013D0000590079420F4490F561FC71FD81F990F77
:1013E000661F771F881F0694A9F7849110951770C0
:1013F00041F0D695C79557954795F794E7941A9578
:10140000C1F7E8E6F0E06894159015913591659183
:10141000959105907FE27395E118F10A430B560B05
:10142000C90BD009C0F7E10CF11E431F561FC91F9D
:10143000D01D7EF4703311F48A95E6CFE894015004
:1014400030F0080F0AF40027021708F4202F239524
:10145000022F7A3328F079E37D932A95E9F710C0BB
:101460007D932A9589F606949795679537951795F4
:101470001794E118F10A430B560BC90BD00998F0E9
:1014800023957E9173957A3308F070E37C93201353
:10149000B8F77E9170617D9330F0839571E37D9311
:1014A00070E32A95E1F71124EF90FF900F911F91BF
:1014B000CF91DF91992787FD90950895DC01FC017C
:1014C000672F71917723E1F7329704C07C916D9378
:1014D00070836291AE17BF07C8F308950E94B00AE7
:1014E00008F481E00895E89409C097FB3EF49095D4
:1014F0008095709561957F4F8F4F9F4F9923A9F0ED
:10150000F92F96E9BB279395F6958795779567957B
:10151000B795F111F8CFFAF4BB0F11F460FF1BC0BF
:101520006F5F7F4F8F4F9F4F16C0882311F096E952
:1015300011C0772321F09EE8872F762F05C0662300
:1015400071F096E8862F70E060E02AF09A95660FB9
:10155000771F881FDAF7880F9695879597F9089572
:10156000990F0008550FAA0BE0E8FEEF16161706B4
:10157000E807F907C0F012161306E407F50798F01C
:10158000621B730B840B950B39F40A2661F0232B35
:10159000242B252B21F408950A2609F4A140A695B1
:1015A0008FEF811D811D0895052E97FB1EF4009479
:1015B0000E94EB0A57FD07D00E942A0B07FC03D0BC
:1015C0004EF40C94EB0A50954095309521953F4F81
:1015D0004F4F5F4F089590958095709561957F4F1F
:1015E0008F4F9F4F08952F923F924F925F926F922D
:1015F0007F928F929F92AF92BF92CF92DF92EF92A3
:10160000FF920F931F93CF93DF93CDB7DEB7CA1B23
:10161000DB0B0FB6F894DEBF0FBECDBF09942A884E
:10162000398848885F846E847D848C849B84AA84F6
:10163000B984C884DF80EE80FD800C811B81AA8183
:10164000B981CE0FD11D0FB6F894DEBF0FBECDBF4E
:10165000ED010895A1E21A2EAA1BBB1BFD010DC0CE
:10166000AA1FBB1FEE1FFF1FA217B307E407F50752
:1016700020F0A21BB30BE40BF50B661F771F881F2E
:10168000991F1A9469F760957095809590959B01C4
:10169000AC01BD01CF010895A29FB001B39FC0016D
:1016A000A39F700D811D1124911DB29F700D811D8E
:1016B0001124911D08950E944C0BB7FF0895821BC1
:1016C000930B0895EE0FFF1F0590F491E02D099400
:1016D0000F931F93CF93DF938230910510F482E034
:1016E00090E0E0911A02F0911B0230E020E0B0E0BF
:1016F000A0E0309799F42115310509F44AC0281B60
:10170000390B24303105D8F58A819B81611571052B
:1017100089F1FB0193838283FE0111C040815181D5
:101720000281138148175907E0F04817590799F4C7
:10173000109761F012960C93129713961C933296A1
:10174000CF01DF91CF911F910F91089500931A025D
:1017500010931B02F4CF2115310551F042175307A6
:1017600038F0A901DB019A01BD01DF01F801C1CF09
:10177000EF01F9CF90931B0280931A02CDCFFE01A7
:10178000E20FF31F8193919322503109398328830B
:10179000D7CF2091180230911902232B41F42091C8
:1017A0000201309103013093190220931802209115
:1017B0000001309101012115310541F42DB73EB7EB
:1017C0004091040150910501241B350BE091180252
:1017D000F0911902E217F307A0F42E1B3F0B281714
:1017E000390778F0AC014E5F5F4F2417350748F09A
:1017F0004E0F5F1F509319024093180281939193EB
:101800009FCFF0E0E0E09CCFCF93DF930097E9F02B
:10181000FC01329713821282A0911A02B0911B022E
:10182000ED0130E020E01097A1F420813181820F9A
:10183000931F20911802309119022817390709F0D7
:1018400061C0F0931902E0931802DF91CF910895DF
:10185000EA01CE17DF07E8F54A815B819E01411559
:101860005105B1F7E901FB83EA8349915991C40F0E
:10187000D51FEC17FD0761F4808191810296840FDA
:10188000951FE90199838883828193819B838A8351
:10189000F0E0E0E012968D919C9113970097B9F5D6
:1018A0002D913C911197CD010296820F931F2091AB
:1018B0001802309119022817390739F6309751F577
:1018C00010921B0210921A02B0931902A0931802F0
:1018D000BCCFD383C28340815181840F951FC81729
:1018E000D90761F44E5F5F4F88819981480F591F76
:1018F000518340838A819B819383828321153105A3
:1019000009F0B0CFF0931B02E0931A029ECFFD01C5
:10191000DC01C0CF13821282D7CFB0E0A0E0E3E9B0
:10192000FCE00C94F50A8C01009751F4CB010E9465
:10193000680B8C01C801CDB7DEB7E0E10C94110B48
:10194000FC01E60FF71F9C0122503109E217F30753
:1019500008F49DC0D901CD91DC911197C617D70726
:1019600098F0C530D10530F3CE010497861797075C
:1019700008F3C61BD70B2297C193D1936D937C9329
:10198000CF010E94040CD6CF5B01AC1ABD0A4C01FA
:101990008C0E9D1EA0911A02B0911B02512C412C5D
:1019A000F12CE12C109731F58091180290911902D9
:1019B0008815990509F05CC04616570608F058C00E
:1019C0008091000190910101009741F48DB79EB77D
:1019D0004091040150910501841B950BE817F9070C
:1019E00008F055C0F0931902E0931802F9017183D1
:1019F0006083A0CF8D919C91119712966C90129755
:101A000013967C901397A815B90559F56C0142E01F
:101A1000C40ED11CCA14DB0420F1AC014A195B09C5
:101A2000DA011296159780F06282738251834083A7
:101A3000D9016D937C93E114F10471F0D7011396F1
:101A4000FC93EE93129776CF22968C0F9D1FF9018F
:101A500091838083F301EFCFF0931B02E0931A028E
:101A600069CF4816590608F42C017D01D3019ACF9D
:101A7000CB010E94680B7C01009749F0AE01B801D0
:101A80000E944A0DC8010E94040C870153CF10E048
:101A900000E050CFFB01DC0102C001900D924150EB
:101AA0005040D8F70895FB01DC0101900D92002011
:081AB000E1F70895F894FFCF5F
:101AB80000001C02800000000000C20109014F0163
:101AC8000F0280015E0172010D0A0020636D00445F
:101AD800697374C3A26E63696120636F6D703A2085
:101AE8000044697374616E6369612074616D3A20A2
:101AF80000446973742074616D20616E7465726945
:101B08006F723A2000446973742074616D206174A7
:061B180075616C3A20002B
:00000001FF
