:100000000C9462000C948A000C948A000C948A0070
:100010000C948A000C948A000C948A000C948A0038
:100020000C948A000C948A000C948A000C948A0028
:100030000C948A000C948A000C948A000C948A0018
:100040000C9481040C948A000C944F040C942904A1
:100050000C948A000C948A000C948A000C948A00F8
:100060000C948A000C948A000000000023002600F3
:10007000290000000000240027002A0000000000E2
:10008000250028002B0004040404040404040202D4
:100090000202020203030303030301020408102007
:1000A0004080010204081020010204081020000012
:1000B0000008000201000003040700000000000027
:1000C0000000100511241FBECFEFD8E0DEBFCDBF6A
:1000D00011E0A0E0B1E0E4EFF3E102C005900D9281
:1000E000A234B107D9F721E0A2E4B1E001C01D922A
:1000F000A83FB207E1F710E0C2E6D0E004C02197C4
:10010000FE010E940008C136D107C9F70E946905A7
:100110000C94F8090C940000AF92BF92CF92DF923A
:10012000EF92FF920F931F93CF93DF936C017B01AC
:100130008B01040F151FEB015E01AE18BF08C0173D
:10014000D10759F06991D601ED91FC910190F081B0
:10015000E02DC6010995892B79F7C501DF91CF9173
:100160001F910F91FF90EF90DF90CF90BF90AF90D5
:100170000895CF93DF93FC014481558160817181A3
:100180008FE491E00E948C00EC0142E050E068E1D5
:1001900071E08FE491E00E948C008C0F9D1FDF9135
:1001A000CF910895FC01538D448D252F30E0842F8D
:1001B00090E0821B930B541710F0CF96089501978F
:1001C0000895FC01918D828D981761F0A28DAE0F7C
:1001D000BF2FB11D5D968C91928D9F5F9F73928F03
:1001E00090E008958FEF9FEF0895FC01918D828D2F
:1001F000981731F0828DE80FF11D858D90E00895FC
:100200008FEF9FEF0895FC01918D228D892F90E053
:10021000805C9F4F821B91098F73992708958FE40B
:1002200091E00E94030121E0892B09F420E0822F54
:10023000089580E090E0892B29F00E940F01811140
:100240000C9400000895FC01A48DA80FB92FB11DD6
:10025000A35ABF4F2C91848D90E001968F739927FC
:10026000848FA689B7892C93A089B1898C918370DA
:1002700080648C93938D848D981306C00288F389D3
:10028000E02D80818F7D80830895EF92FF920F9300
:100290001F93CF93DF93EC0181E0888F9B8D8C8D32
:1002A00098131AC0E889F989808185FF15C09FB726
:1002B000F894EE89FF896083E889F98980818370E9
:1002C000806480839FBF81E090E0DF91CF911F9198
:1002D0000F91FF90EF900895F62E0B8D10E00F5FB9
:1002E0001F4F0F731127E02E8C8D8E110CC00FB68F
:1002F00007FCFACFE889F989808185FFF5CFCE0127
:100300000E942301F1CFEB8DEC0FFD2FF11DE35A7D
:10031000FF4FF0829FB7F8940B8FEA89FB898081A9
:100320008062CFCFCF93DF93EC01888D8823B9F023
:10033000AA89BB89E889F9898C9185FD03C08081F0
:1003400086FD0DC00FB607FCF7CF8C9185FFF2CF6D
:10035000808185FFEDCFCE010E942301E9CFDF919F
:10036000CF91089590E0FC01E255FF4F2491FC01EC
:10037000E656FF4F3491FC01EA57FF4FE491EE231C
:10038000C9F0222339F0233001F1A8F4213019F10A
:10039000223029F1F0E0EE0FFF1FE458FF4FA59146
:1003A000B4918FB7F894EC91611126C030953E233B
:1003B0003C938FBF08952730A9F02830C9F024302E
:1003C00049F7809180008F7D03C0809180008F77F6
:1003D00080938000DFCF84B58F7784BDDBCF84B579
:1003E0008F7DFBCF8091B0008F778093B000D2CF0C
:1003F0008091B0008F7DF9CF3E2BDACFCF93DF9382
:1004000090E0FC01E656FF4F24918A579F4FFC0174
:1004100084918823D1F090E0880F991FFC01EE5859
:10042000FF4FA591B491FC01E458FF4FC591D491C1
:1004300061110EC09FB7F8948C91E22FE0958E2346
:100440008C932881E223E8839FBFDF91CF910895A9
:100450008FB7F894EC91E22BEC938FBFF6CF3FB7B8
:10046000F8948091470190914801A0914901B09181
:100470004A0126B5A89B05C02F3F19F00196A11D82
:10048000B11D3FBFBA2FA92F982F8827BC01CD01DE
:10049000620F711D811D911D42E0660F771F881F3D
:1004A000991F4A95D1F708958F929F92AF92BF926C
:1004B000CF92DF92EF92FF924B015C010E942F02DC
:1004C0006B017C010E942F026C197D098E099F0926
:1004D000683E734081059105A8F321E0821A9108D6
:1004E000A108B10888EEC80E83E0D81EE11CF11CFB
:1004F00081149104A104B10429F7FF90EF90DF90DB
:10050000CF90BF90AF909F908F9008950F931F93BF
:10051000CF93C82F8B0161E00E94B20128EE33E037
:10052000D8010E94F90724EB30E040E050E00E943F
:10053000720728513C4F4F4F5F4F220F331F220F3E
:10054000331F25503109C9010197F1F760E08C2F65
:100550000E94B2016AE070E080E090E0CF911F91CC
:100560000F910C9454020F931F93CF93DF93EC01E0
:1005700088819981009759F02A813B812617370796
:1005800030F081E0DF91CF911F910F9108958B01A1
:100590006F5F7F4F0E942B09009759F099838883E2
:1005A0001B830A832C813D81232B59F7FC01108288
:1005B000E8CF80E0E7CFCF93DF93EC01888199818A
:1005C000009711F00E94A208198218821D821C82D5
:1005D0001B821A82DF91CF910895CF92DF92EF9222
:1005E000FF920F931F93CF93DF9300D000D000D0E2
:1005F0001F92CDB7DEB77C01CB014AE09E012F5F91
:100600003F4F6901B9010E94E206F6010190002006
:10061000E9F73197EC19FD09D9F0D70114960D913E
:100620001C910E0F1F1FB801C7010E94B30288233F
:10063000F9F0F7012081318184819581B601820F23
:10064000931F0E94F109D70115961C930E931497DE
:10065000C70127960FB6F894DEBF0FBECDBFDF915E
:10066000CF911F910F91FF90EF90DF90CF90089561
:10067000C7010E94DB02ECCFEF92FF920F931F9312
:10068000CF93DF93EC01FB01E080F180E114F104F2
:1006900011F10481158101151105A9F08C819D814D
:1006A000080F191FB801CE010E94B302882399F0E8
:1006B000288139818C819D81B701820F931F0E940F
:1006C000F1091D830C83CE01DF91CF911F910F9112
:1006D000FF90EF900895CE010E94DB02F4CFEF92DD
:1006E000FF920F931F93CF93DF93EC017B0119824D
:1006F00018821B821A821D821C82FB01019000203D
:10070000E9F731978F01061B170BB8010E94B3025E
:10071000811109C0CE01DF91CF911F910F91FF9000
:10072000EF900C94DB021D830C83B70188819981C3
:10073000DF91CF911F910F91FF90EF900C94F109F1
:10074000FC0180819181009711F00C94A20808951A
:10075000EF92FF920F931F93CF93DF93EC011982D7
:1007600018821B821A821D821C828617970719F134
:10077000FB010081118101151105E9F0E480F5808C
:10078000B7010E94B302811109C0CE01DF91CF9160
:100790001F910F91FF90EF900C94DB02FD82EC8291
:1007A000B80188819981DF91CF911F910F91FF90BE
:1007B000EF900C94F109DF91CF911F910F91FF9071
:1007C000EF9008950F931F93CF93DF93EC0160E0B8
:1007D00088810E94B20183E090E00197F1F761E027
:1007E00088810E94B20183E290E00197F1F760E016
:1007F00088810E94B201898190E0FC01E656FF4F9A
:100800006491FC01EA57FF4FE491F0E0EE0FFF1F07
:10081000E859FF4F8591949100E412E42FE030E015
:10082000462F0E94CB04611571058105910529F0C1
:100830006F5F7F4F8F4F9F4F9F702BE330E040E003
:1008400050E00E94C807C901DF91CF911F910F911D
:1008500008951F920F920FB60F9211242F933F937A
:100860004F935F936F937F938F939F93AF93BF93B8
:10087000EF93FF938FE491E00E942301FF91EF91AA
:10088000BF91AF919F918F917F916F915F914F91A8
:100890003F912F910F900FBE0F901F9018951F92B0
:1008A0000F920FB60F9211242F938F939F93EF9374
:1008B000FF93E0915F01F09160018081E09165011B
:1008C000F091660182FD1BC09081809168018F5F6D
:1008D0008F7320916901821741F0E0916801F0E087
:1008E000E15BFE4F958F80936801FF91EF919F919F
:1008F0008F912F910F900FBE0F901F9018958081B0
:10090000F4CF1F920F920FB60F9211242F933F93A3
:100910008F939F93AF93BF93809143019091440134
:10092000A0914501B09146013091420123E0230F8F
:100930002D3758F50196A11DB11D209342018093DA
:10094000430190934401A0934501B09346018091E7
:10095000470190914801A0914901B0914A01019647
:10096000A11DB11D8093470190934801A0934901B7
:10097000B0934A01BF91AF919F918F913F912F9179
:100980000F900FBE0F901F90189526E8230F029628
:10099000A11DB11DD2CFCF92DF92EF92FF920F93A4
:1009A0001F93E82FF92F05C00150110921093109C2
:1009B00061F1908196239417B9F305C00150110994
:1009C0002109310911F1908196239413F7CFC12C9D
:1009D000D12CE12CF12C0AC08FEFC81AD80AE80AF2
:1009E000F80A0C151D052E053F0579F08081862338
:1009F000841791F36C2D7D2D8E2D9F2D1F910F91BE
:100A0000FF90EF90DF90CF90089560E070E080E07D
:100A100090E01F910F91FF90EF90DF90CF9008959D
:100A2000EFE4F1E01382128288EE93E0A0E0B0E000
:100A300084839583A683B7838AE091E09183808342
:100A400085EC90E09587848784EC90E09787868793
:100A500080EC90E0918B808B81EC90E0938B828B8B
:100A600082EC90E0958B848B86EC90E0978B868B64
:100A7000118E128E138E148E61E084E00E94FE01AE
:100A800060E085E00E94FE01E2EFF1E084E0808317
:100A900085E0818361E082E00E94FE0160E083E006
:100AA0000E94FE01E0EFF1E082E0808383E0818339
:100AB000CF010E94E203BC0190E080E00E94110798
:100AC0006093EC017093ED018093EE019093EF0140
:100AD0000895CF93DF93CDB7DEB762970FB6F89442
:100AE000DEBF0FBECDBF789484B5826084BD84B56F
:100AF000816084BD85B5826085BD85B5816085BD19
:100B000080916E00816080936E00109281008091D0
:100B10008100826080938100809181008160809358
:100B20008100809180008160809380008091B1007D
:100B300084608093B1008091B00081608093B000A8
:100B400080917A00846080937A0080917A0082603C
:100B500080937A0080917A00816080937A008091FE
:100B60007A00806880937A001092C10061E089E089
:100B70000E94FE0161E08AE00E94FE01E0915F01B7
:100B8000F091600182E08083E0915B01F0915C0173
:100B90001082E0915D01F0915E018FEC80831092F4
:100BA0006701E0916301F091640186E08083E09148
:100BB0006101F0916201808180618083E091610137
:100BC000F0916201808188608083E0916101F09101
:100BD0006201808180688083E0916101F09162010F
:100BE00080818F7D808300E010E06BE171E0CE01B9
:100BF00001960E946F0382EF91E00E94E2037C0164
:100C00006FE171E0CE010D960E946F03BE01635F3C
:100C10007F4FCE0107960E94A803B701CE01079629
:100C20000E94ED02BE016F5F7F4F0E943C030E9455
:100C3000B900CE0107960E94A003CE010D960E9436
:100C4000A003CE0101960E94A0036BE171E0CE01EA
:100C500001960E946F0380EF91E00E94E2037C0105
:100C600061E371E0CE010D960E946F03BE01635FE8
:100C70007F4FCE0107960E94A803B701CE010796C9
:100C80000E94ED02BE016F5F7F4F0E943C030E94F5
:100C9000B900CE0107960E94A003CE010D960E94D6
:100CA000A003CE0101960E94A0038091EC019091D7
:100CB000ED01A091EE01B091EF0180934B01909373
:100CC0004C01A0934D01B0934E0180EF91E00E9442
:100CD000E203BC0190E080E00E9411076093EC0108
:100CE0007093ED018093EE019093EF0182EF91E01C
:100CF0000E94E203449708F060C06AE570E089E072
:100D000090E00E9486022091EC013091ED0140912B
:100D1000EE015091EF0160914B0170914C01809177
:100D20004D0190914E010E940C07882341F080EF05
:100D300091E00E94E20370E060E04E97E0F02091C5
:100D4000EC013091ED014091EE015091EF01609185
:100D50004B0170914C0180914D0190914E010E9488
:100D60000C078823C1F080EF91E00E94E2034E97C8
:100D700090F064EB70E08AE090E00E94860264EFFD
:100D800071E080E090E00E9454026AE570E08AE041
:100D900090E00E94860264EF71E080E090E00E94A3
:100DA00054020115110509F420CF0E940F01882378
:100DB00009F41BCF0E94000018CF70E060E089E0CA
:100DC00090E0E7CFBB27FB015527AA27880F991F83
:100DD000AA1FA41710F0A41B83955051B9F7A05D6A
:100DE000AA3308F0A95DA193009779F7B111B193E7
:100DF0001192CB010C94FC06DC01FC01672F719170
:100E00007723E1F7329704C07C916D9370836291F0
:100E1000AE17BF07C8F308950E944E0708F481E09B
:100E20000895E89409C097FB3EF4909580957095DD
:100E300061957F4F8F4F9F4F9923A9F0F92F96E926
:100E4000BB279395F695879577956795B795F1119B
:100E5000F8CFFAF4BB0F11F460FF1BC06F5F7F4F38
:100E60008F4F9F4F16C0882311F096E911C077234A
:100E700021F09EE8872F762F05C0662371F096E853
:100E8000862F70E060E02AF09A95660F771F881F22
:100E9000DAF7880F9695879597F90895990F0008C6
:100EA000550FAA0BE0E8FEEF16161706E807F9073C
:100EB000C0F012161306E407F50798F0621B730BD7
:100EC000840B950B39F40A2661F0232B242B252B58
:100ED00021F408950A2609F4A140A6958FEF811DFB
:100EE000811D0895052E97FB1EF400940E9489072A
:100EF00057FD07D00E94C80707FC03D04EF40C949E
:100F0000890750954095309521953F4F4F4F5F4F42
:100F1000089590958095709561957F4F8F4F9F4F65
:100F200008952F923F924F925F926F927F928F928D
:100F30009F92AF92BF92CF92DF92EF92FF920F9368
:100F40001F93CF93DF93CDB7DEB7CA1BDB0B0FB672
:100F5000F894DEBF0FBECDBF09942A88398848882F
:100F60005F846E847D848C849B84AA84B984C884C5
:100F7000DF80EE80FD800C811B81AA81B981CE0FBC
:100F8000D11D0FB6F894DEBF0FBECDBFED010895A1
:100F9000A1E21A2EAA1BBB1BFD010DC0AA1FBB1F7D
:100FA000EE1FFF1FA217B307E407F50720F0A21BEF
:100FB000B30BE40BF50B661F771F881F991F1A945C
:100FC00069F760957095809590959B01AC01BD0186
:100FD000CF010895A29FB001B39FC001A39F700DE0
:100FE000811D1124911DB29F700D811D1124911D31
:100FF00008950E94EA07B7FF0895821B930B089596
:10100000EE0FFF1F0590F491E02D09940F931F93AD
:10101000CF93DF938230910510F482E090E0E0916D
:10102000F601F091F70130E020E0B0E0A0E0309769
:1010300099F42115310509F44AC0281B390B2430D5
:101040003105D8F58A819B816115710589F1FB0114
:1010500093838283FE0111C04081518102811381FB
:1010600048175907E0F04817590799F4109761F0AD
:1010700012960C93129713961C933296CF01DF9120
:10108000CF911F910F9108950093F6011093F701EE
:10109000F4CF2115310551F04217530738F0A9015B
:1010A000DB019A01BD01DF01F801C1CFEF01F9CFEA
:1010B0009093F7018093F601CDCFFE01E20FF31F6D
:1010C000819391932250310939832883D7CF20917E
:1010D000F4013091F501232B41F42091020130916C
:1010E00003013093F5012093F40120910001309128
:1010F00001012115310541F42DB73EB7409104019E
:1011000050910501241B350BE091F401F091F5019C
:10111000E217F307A0F42E1B3F0B2817390778F0CE
:10112000AC014E5F5F4F2417350748F04E0F5F1F2D
:101130005093F5014093F401819391939FCFF0E098
:10114000E0E09CCFCF93DF930097E9F0FC0132976A
:1011500013821282A091F601B091F701ED0130E007
:1011600020E01097A1F420813181820F931F2091FC
:10117000F4013091F5012817390709F061C0F093A7
:10118000F501E093F401DF91CF910895EA01CE17C4
:10119000DF07E8F54A815B819E0141155105B1F7F2
:1011A000E901FB83EA8349915991C40FD51FEC17DC
:1011B000FD0761F4808191810296840F951FE901FA
:1011C00099838883828193819B838A83F0E0E0E026
:1011D00012968D919C9113970097B9F52D913C91A2
:1011E0001197CD010296820F931F2091F401309147
:1011F000F5012817390739F6309751F51092F701A4
:101200001092F601B093F501A093F401BCCFD38303
:10121000C28340815181840F951FC817D90761F49B
:101220004E5F5F4F88819981480F591F51834083DA
:101230008A819B81938382832115310509F0B0CF88
:10124000F093F701E093F6019ECFFD01DC01C0CFE2
:1012500013821282D7CFB0E0A0E0E1E3F9E00C9472
:1012600093078C01009751F4CB010E9406088C0172
:10127000C801CDB7DEB7E0E10C94AF07FC01E60F83
:10128000F71F9C0122503109E217F30708F49DC0B3
:10129000D901CD91DC911197C617D70798F0C530C9
:1012A000D10530F3CE0104978617970708F3C61BC4
:1012B000D70B2297C193D1936D937C93CF010E945A
:1012C000A208D6CF5B01AC1ABD0A4C018C0E9D1E44
:1012D000A091F601B091F701512C412CF12CE12C99
:1012E000109731F58091F4019091F50188159905D9
:1012F00009F05CC04616570608F058C080910001FE
:1013000090910101009741F48DB79EB7409104017F
:1013100050910501841B950BE817F90708F055C09B
:10132000F093F501E093F401F90171836083A0CF9C
:101330008D919C91119712966C90129713967C90B8
:101340001397A815B90559F56C0142E0C40ED11CDC
:10135000CA14DB0420F1AC014A195B09DA011296C8
:10136000159780F06282738251834083D9016D9317
:101370007C93E114F10471F0D7011396FC93EE9382
:10138000129776CF22968C0F9D1FF901918380834F
:10139000F301EFCFF093F701E093F60169CF481620
:1013A000590608F42C017D01D3019ACFCB010E948C
:1013B00006087C01009749F0AE01B8010E94E809D7
:1013C000C8010E94A208870153CF10E000E050CF6F
:1013D000FB01DC0102C001900D9241505040D8F752
:1013E0000895FB01DC0101900D920020E1F70895C2
:0413F000F894FFCF9F
:1013F4000000F80180000000000045018C00D200CC
:1014040092010301E100F5000D0A0020636D004420
:10141400697374C3A26E63696120636F6D703A204F
:101424000044697374616E6369612074616D3A206C
:021434000000B6
:00000001FF
