:100000000C945E000C9486000C9486000C94860080
:100010000C9486000C9486000C9486000C94860048
:100020000C9486000C9486000C9486000C94860038
:100030000C9486000C9486000C9486000C94860028
:100040000C94DA050C9486000C94A8050C94820597
:100050000C9486000C9486000C9486000C94860008
:100060000C9486000C948600000000080002010039
:100070000003040700000000000000000000000072
:10008000250028002B0000000000240027002A0083
:10009000040404040404040402020202020203032E
:1000A0000303030301020408102040800102040836
:1000B00010200102040810202406910811241FBEFC
:1000C000CFEFD8E0DEBFCDBF11E0A0E0B1E0E4E4C7
:1000D000F8E102C005900D92AC3FB107D9F722E0DC
:1000E000ACEFB1E001C01D92A53BB207E1F710E013
:1000F000CDE5D0E004C02197FE010E940C0ACC356A
:10010000D107C9F70E945C060C94150C0C940000F2
:100110000895AF92BF92CF92DF92EF92FF920F932A
:100120001F93CF93DF936C017B018B01040F151F8D
:10013000EB015E01AE18BF08C017D10759F06991F5
:10014000D601ED91FC910190F081E02DC601099559
:10015000892B79F7C501DF91CF911F910F91FF9006
:10016000EF90DF90CF90BF90AF900895FC01538D3A
:10017000448D252F30E0842F90E0821B930B541781
:1001800010F0CF96089501970895FC01918D828D0E
:10019000981761F0A28DAE0FBF2FB11D5D968C91A7
:1001A000928D9F5F9F73928F90E008958FEF9FEFE6
:1001B00008952FB7F8948091040290910502A091C0
:1001C0000602B09107022FBF809310029093110294
:1001D000A0931202B093130288E092E00E94C5003F
:1001E00097FF26C02FB7F8948091040290910502E2
:1001F000A0910602B09107022FBF409110025091CA
:1002000011026091120270911302841B950BA60BD0
:10021000B70B40910C0250910D0260910E0270914B
:100220000F0284179507A607B707B0F28FEF9FEF6D
:100230000895FC01918D828D981731F0828DE80F21
:10024000F11D858D90E008958FEF9FEF0895FC01DB
:10025000918D228D892F90E0805C9F4F821B9109A8
:100260008F739927089588E092E00E94270121E08A
:10027000892B09F420E0822F089580E090E0892BFB
:1002800029F00E94330181110C9400000895FC01B3
:10029000A48DA80FB92FB11DA35ABF4F2C91848DE7
:1002A00090E001968F739927848FA689B7892C9344
:1002B000A089B1898C91837080648C93938D848D97
:1002C000981306C00288F389E02D80818F7D80839A
:1002D0000895EF92FF920F931F93CF93DF93EC015A
:1002E00081E0888F9B8D8C8D98131AC0E889F989DD
:1002F000808185FF15C09FB7F894EE89FF896083E0
:10030000E889F98980818370806480839FBF81E060
:1003100090E0DF91CF911F910F91FF90EF900895A2
:10032000F62E0B8D10E00F5F1F4F0F731127E02E7D
:100330008C8D8E110CC00FB607FCFACFE889F989B5
:10034000808185FFF5CFCE010E944701F1CFEB8D73
:10035000EC0FFD2FF11DE35AFF4FF0829FB7F89489
:100360000B8FEA89FB8980818062CFCFCF93DF93A7
:10037000EC01888D8823B9F0AA89BB89E889F989BD
:100380008C9185FD03C0808186FD0DC00FB607FCF2
:10039000F7CF8C9185FFF2CF808185FFEDCFCE0125
:1003A0000E944701E9CFDF91CF91089590E0FC01D1
:1003B000E859FF4F2491FC01EC55FF4F3491FC01AB
:1003C000E057FF4FE491EE23C9F0222339F02330A8
:1003D00001F1A8F4213019F1223029F1F0E0EE0FFB
:1003E000FF1FE458FF4FA591B4918FB7F894EC919B
:1003F000611126C030953E233C938FBF089527306E
:10040000A9F02830C9F0243049F7809180008F7D11
:1004100003C0809180008F7780938000DFCF84B508
:100420008F7784BDDBCF84B58F7DFBCF8091B0000B
:100430008F778093B000D2CF8091B0008F7DF9CFBD
:100440003E2BDACF3FB7F8948091FF0190910002E4
:10045000A0910102B091020226B5A89B05C02F3FD2
:1004600019F00196A11DB11D3FBFBA2FA92F982FDA
:100470008827BC01CD01620F711D811D911D42E0D5
:10048000660F771F881F991F4A95D1F708958F929D
:100490009F92AF92BF92CF92DF92EF92FF926B0149
:1004A0007C010E9422024B015C01C114D104E104D1
:1004B000F104B9F00E942202681979098A099B099E
:1004C000683E73408105910580F321E0C21AD1088E
:1004D000E108F10888EE880E83E0981EA11CB11C8B
:1004E000E4CFFF90EF90DF90CF90BF90AF909F90C0
:1004F0008F900895BF92CF92DF92EF92FF920F9369
:100500001F93CF93DF938B01D0E0C0E06C01990F74
:10051000EE08FF0896E0B92E61E08B2D0E94D6010F
:10052000B3948CE0B812F8CFC701B6010E9447021D
:1005300086E0B82E60E08B2D0E94D601B3948CE04B
:10054000B812F8CFC701B6010E94470221960C17D6
:100550001D0701F7DF91CF911F910F91FF90EF9051
:10056000DF90CF90BF90089542E050E060E271E0EC
:1005700088E092E00C948900CF93DF93FC01019016
:100580000020E9F73197AF01481B590BBC0188E007
:1005900092E00E948900EC010E94B4028C0F9D1F22
:1005A000DF91CF910895EF92FF920F931F93CF9316
:1005B000DF930091AB021091AC02FC01C081D181AC
:1005C000F80181918F018823B9F0082E000C990B56
:1005D0000E94F40B7C018991082E000C990B0E945B
:1005E000F40BE816F90661F380E0DF91CF911F91DB
:1005F0000F91FF90EF90089581E0F7CF8091AB02CB
:100600009091AC026091A5027091A6020097E1F072
:1006100061157105B9F42091AF023091B002232B1E
:10062000B1F0FC01808190E008958091A902909141
:10063000AA02892B61F0FB01808190E09195819560
:10064000910908950C94050C6115710571F790E0FE
:1006500080E008950F931F93CF93DF93EC0188817F
:100660009981009759F02A813B812617370730F08E
:1006700081E0DF91CF911F910F9108958B016F5F02
:100680007F4F0E94370B009759F0998388831B8313
:100690000A832C813D81232B59F7FC011082E8CF7E
:1006A00080E0E7CFEF92FF920F931F93CF93DF93FA
:1006B0006115710541F480E0DF91CF911F910F9199
:1006C000FF90EF90089541155105B1F07B01EC01C9
:1006D0000C811D81040F151FB8010E942A03882375
:1006E00051F3288139818C819D81B701820F931F3D
:1006F0000E940E0C1D830C8381E0DECFCF93DF932D
:10070000EC0188819981009711F00E94AE0A19824C
:1007100018821D821C821B821A82DF91CF9108955C
:10072000EF92FF920F931F93CF93DF93CDB7DEB776
:1007300028970FB6F894DEBF0FBECDBF7C01CB016A
:100740004AE08E010F5F1F4FB8010E943D09F8017A
:1007500001900020E9F73197AF01401B510BB80120
:10076000C7010E945203811103C0C7010E947E038A
:10077000C70128960FB6F894DEBF0FBECDBFDF913C
:10078000CF911F910F91FF90EF900895EF92FF92FC
:100790000F931F93CF93DF93EC017B018A01BA0182
:1007A0000E942A0381110BC0CE010E947E03CE015C
:1007B000DF91CF911F910F91FF90EF9008951D83CE
:1007C0000C83B701888199810E940E0CF0CFCF93E2
:1007D000DF93EC01FB018617970749F06081718177
:1007E0006115710541F0448155810E94C603CE0117
:1007F000DF91CF9108950E947E03F9CFFC01118211
:1008000010821382128215821482FB010190002053
:10081000E9F73197AF01461B570B0C94C603FC0157
:1008200080819181009711F00C94AE0A0895CF93C6
:10083000DF93CDB7DEB728970FB6F894DEBF0FBEB3
:10084000CDBF83E291E00E94BC0288E092E00E946A
:100850002701892BD1F388E092E00E942701892BA0
:10086000C1F162E271E0CE0101960E94FE030E9496
:10087000D90097FD0CC08F83188641E050E0BE017F
:10088000695F7F4FCE0101960E945203F0CF8091A5
:10089000AB029091AC02009739F169817A816115C0
:1008A000710501F14091AD025091AE022D813E8162
:1008B00042175307B8F00E940E0C8D819E819093D1
:1008C000B0028093AF021E821D82CE0101960E946B
:1008D0000F0428960FB6F894DEBF0FBECDBFDF9190
:1008E000CF9108950E94AE0A89819A819093AC02BB
:1008F0008093AB028B819C819093AE028093AD027A
:100900008D819E819093B0028093AF021A821982EA
:100910001C821B82D8CF2F923F924F925F926F9290
:100920007F928F929F92AF92BF92CF92DF92EF927F
:10093000FF920F931F93CF93DF9300D000D000D08E
:10094000CDB7DEB72C015B012DB63EB6CB01880FCB
:10095000991F2DB73EB7281B390B0FB6F8943EBF31
:100960000FBE2DBF8DB79EB701966C017C0110E0C4
:1009700000E036E0632E712C812C912C0A151B05AA
:100980008CF40E94E508A40193010E9472096F5F34
:100990007F4F8F4F9F4FF701619371937F010F5FDF
:1009A0001F4FECCF50E040E062E271E085EA92E058
:1009B0000E94C603F12CE12C052C000C6608770878
:1009C000EA14FB040CF080C0F601019111916F0153
:1009D0001093FD010093FC010130110571F561E0F8
:1009E00086E00E94D601C301B2010E94470260E086
:1009F00086E00E94D601C301B2010E9447021A821A
:100A000019821C821B821E821D8265EA72E0CE0161
:100A100001960E94E703B801CE0101960E9490035F
:100A2000BC0185EA92E00E94E703CE0101960E9494
:100A30000F04FFEFEF1AFF0AC3CF0230110559F47C
:100A400061E087E00E94D601C301B2010E94470223
:100A500060E087E0CECF0330110559F461E088E013
:100A60000E94D601C301B2010E94470260E088E003
:100A7000C0CF0430110559F461E089E00E94D6012D
:100A8000C301B2010E94470260E089E0B2CF0530A5
:100A9000110559F461E08AE00E94D601C301B20158
:100AA0000E94470260E08AE0A4CF0630110509F0F9
:100AB000A6CF61E08BE00E94D601C301B2010E9483
:100AC000470260E08BE095CF0FB6F8943EBE0FBEB4
:100AD0002DBE26960FB6F894DEBF0FBECDBFDF91B8
:100AE000CF911F910F91FF90EF90DF90CF90BF902B
:100AF000AF909F908F907F906F905F904F903F90BE
:100B00002F9008951F920F920FB60F9211242F93DA
:100B10003F934F935F936F937F938F939F93AF9385
:100B2000BF93EF93FF9388E092E00E944701FF910B
:100B3000EF91BF91AF919F918F917F916F915F9155
:100B40004F913F912F910F900FBE0F901F901895CE
:100B50001F920F920FB60F9211242F938F939F9392
:100B6000EF93FF93E0911802F09119028081E091D8
:100B70001E02F0911F0282FD1BC090818091210214
:100B80008F5F8F7320912202821741F0E091210242
:100B9000F0E0E85FFD4F958F80932102FF91EF9188
:100BA0009F918F912F910F900FBE0F901F901895CE
:100BB0008081F4CF1F920F920FB60F9211242F93C2
:100BC0003F938F939F93AF93BF9380910402909133
:100BD0000502A0910602B09107023091FE0123E0C8
:100BE000230F2D3758F50196A11DB11D2093FE014D
:100BF0008093040290930502A0930602B09307022B
:100C00008091FF0190910002A0910102B091020237
:100C10000196A11DB11D8093FF0190930002A09346
:100C20000102B0930202BF91AF919F918F913F91CA
:100C30002F910F900FBE0F901F90189526E8230F4D
:100C40000296A11DB11DD2CFE8E0F2E0138212821C
:100C500088EE93E0A0E0B0E084839583A683B78319
:100C600082E191E09183808385EC90E09587848791
:100C700084EC90E09787868780EC90E0918B808B66
:100C800081EC90E0938B828B82EC90E0958B848B4F
:100C900086EC90E0978B868B118E128E138E148EBD
:100CA00062E271E08BEA92E00E94FE0362E271E090
:100CB00085EA92E00C94FE03CF93DF93CDB7DEB7C5
:100CC00062970FB6F894DEBF0FBECDBF789484B59F
:100CD000826084BD84B5816084BD85B5826085BD38
:100CE00085B5816085BD80916E00816080936E00C6
:100CF00010928100809181008260809381008091B8
:100D00008100816080938100809180008160809368
:100D100080008091B10084608093B1008091B00028
:100D200081608093B00080917A00846080937A0023
:100D300080917A00826080937A0080917A0081604D
:100D400080937A0080917A00806880937A00109274
:100D5000C100E0911802F091190282E08083E091D5
:100D60001402F09115021082E0911602F091170220
:100D70008FEC808310922002E0911C02F0911D0202
:100D800086E08083E0911A02F0911B0280818061ED
:100D90008083E0911A02F0911B0280818860808339
:100DA000E0911A02F0911B02808180688083E091BB
:100DB0001A02F0911B0280818F7D808326E030E053
:100DC000F901EC55FF4F4491F901E057FF4F849131
:100DD000882399F090E0880F991FFC01EA57FF4F94
:100DE000A591B491FC01E458FF4F859194918FB780
:100DF000F894EC91E42BEC938FBF2F5F3F4F2C3096
:100E00003105F1F680E480937C0080917A00806463
:100E100080937A0080917A0086FDFCCF80917800E3
:100E200060917900762F682F072E000C880B990BA4
:100E3000611571058105910511F00E94340990E05A
:100E4000E92E90E0F92E22E0B22E33E0A32E42E00C
:100E5000C42ED12C84E0882E99249394809103028F
:100E6000823009F4B4C084F4882309F441C081308D
:100E700009F47CC0E114F10489F30E943301882352
:100E800049F30E940000E6CF833009F43DC184306D
:100E900089F783ED91E00E94BC020E94170469E586
:100EA00071E0CE0101960E94FE038091AF02909105
:100EB000B0022D813E8110E08217930741F411E0CA
:100EC000892B29F0CE0101960E94D302182FCE0162
:100ED00001960E940F041123F1F1909203028AEE11
:100EE00091E00E94BC02D0920301C09202012EC088
:100EF0008DE391E00E94BC028AE491E00E94BC0272
:100F00000E94170469E571E0CE0101960E94FE037C
:100F10008091AF029091B0022D813E8110E0821746
:100F2000930741F411E0892B29F0CE0101960E942C
:100F3000D302182FCE0101960E940F04112359F0FD
:100F4000909203028BE591E00E94BC0263E070E0A6
:100F500088EE93E034C0A092030288E691E00E94FC
:100F6000BC0265E070E08CE291E029C082E291E091
:100F70000E94BC028AE791E00E94BC0263E070E03C
:100F800088EE93E00E948B040E9417042091AF0228
:100F90003091B0028091A9029091AA0228173907D6
:100FA00089F40E94FE02892B69F4B092030288E85A
:100FB00091E00E94BC0263E070E080E293E00E9456
:100FC0007A0258CFA092030281EA91E0C8CF82E270
:100FD00091E00E94BC0264E871E0CE0101960E949B
:100FE000FE03009102011091030167EB71E0CE0155
:100FF0000D960E94FE0318861F821A8619861C868B
:101000001B86BE01635F7F4FCE0107960E94E703F8
:10101000B801CE0107960E9490038C014D815E813C
:1010200069817A810E945203811103C0C8010E9424
:101030007E03F801448155816081718188E092E0EE
:101040000E9489000E94B402CE0107960E940F04FC
:10105000CE010D960E940F04CE0101960E940F044E
:101060006091020170910301809100019091010152
:101070006530710524F465E070E088EE93E00E942D
:101080008B040E9417042091AF023091B00280912E
:10109000A9029091AA022817390709F093CF0E945C
:1010A000FE02892B09F08ECF8091020190910301FD
:1010B00001969093030180930201B092030288E8A5
:1010C00091E00E94BC0263E070E088EE93E00E9431
:1010D0007A0280910201909103018730910554F4C6
:1010E0008091000190910101CC9790930101809330
:1010F0000001C0CE0A970CF0BDCE80910001909106
:1011000001018B549109F1CF81EC91E00E94BC0266
:1011100065E070E084E690E00E947A02809203022B
:10112000A9CE85EA92E00E940F048BEA92E00C942B
:101130000F048F929F92AF92BF92CF92DF92EF9265
:10114000FF92CF93DF93EC01688179818A819B8143
:10115000611571058105910521F464E279ED8BE556
:1011600097E02DE133EF41E050E00E947209490120
:101170005A019B01AC01A7EAB1E40E9491096B01FD
:101180007C01ACEEB4EFA50194010E949F09C60E4C
:10119000D71EE81EF91EF7FE06C081E0C81AD10866
:1011A000E10880E8F80AC882D982EA82FB82C70196
:1011B000B6019F77DF91CF91FF90EF90DF90CF90B6
:1011C000BF90AF909F908F9008958F929F92AF9213
:1011D000BF92CF92DF92EF92FF92609104017091E3
:1011E0000501809106019091070161157105810546
:1011F000910521F464E279ED8BE597E02DE133EF81
:1012000041E050E00E94720949015A019B01AC0182
:10121000A7EAB1E40E9491096B017C01ACEEB4EF46
:10122000A50194010E949F09C60ED71EE81EF91E53
:10123000F7FE06C081E0C81AD108E10880E8F80A84
:10124000C0920401D0920501E0920601F0920701DC
:10125000C701B6019F77FF90EF90DF90CF90BF90CE
:10126000AF909F908F900895609304017093050153
:1012700080930601909307010895BB274A3031F40B
:10128000992322F4BDE2909581959F4F0C944909D2
:10129000BB27FB015527AA27880F991FAA1FA41750
:1012A00010F0A41B83955051B9F7A05DAA3308F044
:1012B000A95DA193009779F7B111B1931192CB0178
:1012C0000C946209DC01FC01672F71917723E1F72F
:1012D000329704C07C916D9370836291AE17BF0703
:1012E000C8F30895052E97FB1EF400940E94890907
:1012F00057FD07D00E94DB0907FC03D04EF40C9485
:10130000890950954095309521953F4F4F4F5F4F3C
:10131000089590958095709561957F4F8F4F9F4F61
:1013200008950E94FD09A59F900DB49F900DA49F64
:10133000800D911D11240895B7FF0C9491090E940E
:101340009109821B930B08952F923F924F925F92C7
:101350006F927F928F929F92AF92BF92CF92DF92C5
:10136000EF92FF920F931F93CF93DF93CDB7DEB72A
:10137000CA1BDB0B0FB6F894DEBF0FBECDBF0994BE
:101380002A88398848885F846E847D848C849B8415
:10139000AA84B984C884DF80EE80FD800C811B8123
:1013A000AA81B981CE0FD11D0FB6F894DEBF0FBE52
:1013B000CDBFED010895A1E21A2EAA1BBB1BFD01B2
:1013C0000DC0AA1FBB1FEE1FFF1FA217B307E40724
:1013D000F50720F0A21BB30BE40BF50B661F771F7C
:1013E000881F991F1A9469F760957095809590955C
:1013F0009B01AC01BD01CF010895A29FB001B39F35
:10140000C001A39F700D811D1124911DB29F700D0D
:10141000811D1124911D0895EE0FFF1F0590F49179
:10142000E02D09940F931F93CF93DF9382309105A2
:1014300010F482E090E0E091B302F091B40230E069
:1014400020E0B0E0A0E0309799F42115310509F4CF
:101450004AC0281B390B24303105D8F58A819B817D
:101460006115710589F1FB0193838283FE0111C02F
:10147000408151810281138148175907E0F04817D4
:10148000590799F4109761F012960C9312971396DE
:101490001C933296CF01DF91CF911F910F91089548
:1014A0000093B3021093B402F4CF2115310551F02B
:1014B0004217530738F0A901DB019A01BD01DF0192
:1014C000F801C1CFEF01F9CF9093B4028093B3023A
:1014D000CDCFFE01E20FF31F81939193225031098A
:1014E00039832883D7CF2091B1023091B202232BC8
:1014F00041F420910A0130910B013093B202209304
:10150000B10220910801309109012115310541F402
:101510002DB73EB740910C0150910D01241B350BA6
:10152000E091B102F091B202E217F307A0F42E1B92
:101530003F0B2817390778F0AC014E5F5F4F241737
:10154000350748F04E0F5F1F5093B2024093B1022F
:10155000819391939FCFF0E0E0E09CCFCF93DF9316
:101560000097E9F0FC01329713821282A091B30236
:10157000B091B402ED0130E020E01097A1F4208199
:101580003181820F931F2091B1023091B20228174E
:10159000390709F061C0F093B202E093B102DF9124
:1015A000CF910895EA01CE17DF07E8F54A815B8104
:1015B0009E0141155105B1F7E901FB83EA83499189
:1015C0005991C40FD51FEC17FD0761F480819181FB
:1015D0000296840F951FE901998388838281938104
:1015E0009B838A83F0E0E0E012968D919C911397A3
:1015F0000097B9F52D913C911197CD010296820F7C
:10160000931F2091B1023091B2022817390739F6A1
:10161000309751F51092B4021092B302B093B20217
:10162000A093B102BCCFD383C28340815181840F88
:10163000951FC817D90761F44E5F5F4F8881998164
:10164000480F591F518340838A819B8193838283F2
:101650002115310509F0B0CFF093B402E093B30245
:101660009ECFFD01DC01C0CF13821282D7CFB0E044
:10167000A0E0EDE3FBE00C94A6098C01009751F487
:10168000CB010E94120A8C01C801CDB7DEB7E0E1A0
:101690000C94C209FC01E60FF71F9C01225031098E
:1016A000E217F30708F49DC0D901CD91DC911197A1
:1016B000C617D70798F0C530D10530F3CE0104978F
:1016C0008617970708F3C61BD70B2297C193D193B0
:1016D0006D937C93CF010E94AE0AD6CF5B01AC1A0A
:1016E000BD0A4C018C0E9D1EA091B302B091B402B4
:1016F000512C412CF12CE12C109731F58091B10245
:101700009091B2028815990509F05CC046165706FB
:1017100008F058C08091080190910901009741F4A8
:101720008DB79EB740910C0150910D01841B950B14
:10173000E817F90708F055C0F093B202E093B10240
:10174000F90171836083A0CF8D919C9111971296BE
:101750006C90129713967C901397A815B90559F5BC
:101760006C0142E0C40ED11CCA14DB0420F1AC01B0
:101770004A195B09DA011296159780F0628273822A
:1017800051834083D9016D937C93E114F10471F08E
:10179000D7011396FC93EE93129776CF22968C0F77
:1017A0009D1FF90191838083F301EFCFF093B40281
:1017B000E093B30269CF4816590608F42C017D0165
:1017C000D3019ACFCB010E94120A7C01009749F005
:1017D000AE01B8010E94FC0BC8010E94AE0A87014D
:1017E00053CF10E000E050CF9111089581548A51F9
:1017F00008F4805E855A0895FB01DC0102C0019067
:101800000D9241505040D8F70895FB01DC018D91B5
:10181000019080190110D9F3990B0895FB01DC01A7
:1018200001900D920020E1F7089510E0CDE5D0E0A1
:1018300004C0FE010E940C0A2196CE35D107C9F7DB
:04184000F894FFCF4A
:10184400E8030200010000000000B502800000006F
:10185400000069018900B600B6012701C50019011D
:101864000D0A002A2E20496E736972612073756116
:1018740020726573706F737461202E2A002A2E20E3
:10188400494E4943494F202E2A00436F6D656361D9
:10189400723F2028732F6E29007300496E696369B3
:1018A400616E646F2E2E2E004A6F676F206E616F1B
:1018B40020696E69636961646F002A2E204E69761F
:1018C400656C2031202E2A005061726162656E734E
:1018D400212070726F78696D6F206E6976656C2E49
:1018E4000041616168206E616F2C20766F63652012
:1018F4006572726F7521002A2E204E6976656C2000
:10190400002A2E2A2047616D65204F766572202AB1
:101914002E2A006A6F676172206E6F76616D656E44
:1019240074653F2028732F6E29004A6F676F206308
:0C1934006F6D6563616E646F2E2E2E00D7
:00000001FF
