:100000000C945E000C9486000C9486000C94860080
:100010000C9486000C9486000C9486000C94860048
:100020000C9486000C9486000C9486000C94860038
:100030000C9486000C9486000C9486000C94860028
:100040000C948C050C9486000C945A050C94340581
:100050000C9486000C9486000C9486000C94860008
:100060000C9486000C948600000000080002010039
:100070000003040700000000000000000000000072
:10008000250028002B0000000000240027002A0083
:10009000040404040404040402020202020203032E
:1000A0000303030301020408102040800102040836
:1000B0001020010204081020D605990711241FBE44
:1000C000CFEFD8E0DEBFCDBF11E0A0E0B1E0E4E5C6
:1000D000F6E102C005900D92AC3FB107D9F722E0DE
:1000E000ACEFB1E001C01D92A53BB207E1F710E013
:1000F000CDE5D0E004C02197FE010E941409CC3563
:10010000D107C9F70E940E060C941D0B0C94000039
:100110000895AF92BF92CF92DF92EF92FF920F932A
:100120001F93CF93DF936C017B018B01040F151F8D
:10013000EB015E01AE18BF08C017D10759F06991F5
:10014000D601ED91FC910190F081E02DC601099559
:10015000892B79F7C501DF91CF911F910F91FF9006
:10016000EF90DF90CF90BF90AF900895FC01538D3A
:10017000448D252F30E0842F90E0821B930B541781
:1001800010F0CF96089501970895FC01918D828D0E
:10019000981761F0A28DAE0FBF2FB11D5D968C91A7
:1001A000928D9F5F9F73928F90E008958FEF9FEFE6
:1001B00008952FB7F8948091040290910502A091C0
:1001C0000602B09107022FBF809310029093110294
:1001D000A0931202B093130288E092E00E94C5003F
:1001E00097FF26C02FB7F8948091040290910502E2
:1001F000A0910602B09107022FBF409110025091CA
:1002000011026091120270911302841B950BA60BD0
:10021000B70B40910C0250910D0260910E0270914B
:100220000F0284179507A607B707B0F28FEF9FEF6D
:100230000895FC01918D828D981731F0828DE80F21
:10024000F11D858D90E008958FEF9FEF0895FC01DB
:10025000918D228D892F90E0805C9F4F821B9109A8
:100260008F739927089588E092E00E94270121E08A
:10027000892B09F420E0822F089580E090E0892BFB
:1002800029F00E94330181110C9400000895FC01B3
:10029000A48DA80FB92FB11DA35ABF4F2C91848DE7
:1002A00090E001968F739927848FA689B7892C9344
:1002B000A089B1898C91837080648C93938D848D97
:1002C000981306C00288F389E02D80818F7D80839A
:1002D0000895EF92FF920F931F93CF93DF93EC015A
:1002E00081E0888F9B8D8C8D98131AC0E889F989DD
:1002F000808185FF15C09FB7F894EE89FF896083E0
:10030000E889F98980818370806480839FBF81E060
:1003100090E0DF91CF911F910F91FF90EF900895A2
:10032000F62E0B8D10E00F5F1F4F0F731127E02E7D
:100330008C8D8E110CC00FB607FCFACFE889F989B5
:10034000808185FFF5CFCE010E944701F1CFEB8D73
:10035000EC0FFD2FF11DE35AFF4FF0829FB7F89489
:100360000B8FEA89FB8980818062CFCFCF93DF93A7
:10037000EC01888D8823B9F0AA89BB89E889F989BD
:100380008C9185FD03C0808186FD0DC00FB607FCF2
:10039000F7CF8C9185FFF2CF808185FFEDCFCE0125
:1003A0000E944701E9CFDF91CF91089590E0FC01D1
:1003B000E859FF4F2491FC01EC55FF4F3491FC01AB
:1003C000E057FF4FE491EE23C9F0222339F02330A8
:1003D00001F1A8F4213019F1223029F1F0E0EE0FFB
:1003E000FF1FE458FF4FA591B4918FB7F894EC919B
:1003F000611126C030953E233C938FBF089527306E
:10040000A9F02830C9F0243049F7809180008F7D11
:1004100003C0809180008F7780938000DFCF84B508
:100420008F7784BDDBCF84B58F7DFBCF8091B0000B
:100430008F778093B000D2CF8091B0008F7DF9CFBD
:100440003E2BDACF3FB7F8948091FD019091FE01E9
:10045000A091FF01B091000226B5A89B05C02F3FD7
:1004600019F00196A11DB11D3FBFBA2FA92F982FDA
:100470008827BC01CD01620F711D811D911D42E0D5
:10048000660F771F881F991F4A95D1F708958F929D
:100490009F92AF92BF92CF92DF92EF92FF926B0149
:1004A0007C010E9422024B015C01C114D104E104D1
:1004B000F104B9F00E942202681979098A099B099E
:1004C000683E73408105910580F321E0C21AD1088E
:1004D000E108F10888EE880E83E0981EA11CB11C8B
:1004E000E4CFFF90EF90DF90CF90BF90AF909F90C0
:1004F0008F900895CF92DF92EF92FF920F931F9308
:10050000CF93DF938B01D0E0C0E06C01990FEE0830
:10051000FF0861E088E00E94D60161E089E00E9466
:10052000D60161E08AE00E94D601C701B6010E94AF
:10053000470260E088E00E94D60160E089E00E9406
:10054000D60160E08AE00E94D601C701B6010E9490
:10055000470221960C171D07E1F6DF91CF911F91FD
:100560000F91FF90EF90DF90CF900895CF93DF939E
:10057000FC0101900020E9F73197AF01481B590BAE
:10058000BC0188E092E00E948900EC0142E050E06A
:100590006CE171E088E092E00E9489008C0F9D1F61
:1005A000DF91CF910895CF93DF93EC0188819981FA
:1005B000009711F00E94B609198218821D821C82D0
:1005C0001B821A82DF91CF910895FC018081918175
:1005D000009711F00C94B6090895EF92FF920F93D3
:1005E0001F93CF93DF930091AB021091AC02FC01FB
:1005F000C081D181F80181918F018823B9F0082E43
:10060000000C990B0E94FC0A7C018991082E000CB9
:10061000990B0E94FC0AE816F90661F380E0DF916D
:10062000CF911F910F91FF90EF90089581E0F7CF48
:100630008091AB029091AC026091A5027091A602EC
:100640000097E1F061157105B9F42091AF02309186
:10065000B002232BB1F0FC01808190E008958091DD
:10066000A9029091AA02892B61F0FB01808190E0A0
:1006700091958195910908950C940D0B6115710563
:1006800071F790E080E008950F931F93CF93DF936D
:10069000EC0188819981009759F02A813B812617C6
:1006A000370730F081E0DF91CF911F910F910895CE
:1006B0008B016F5F7F4F0E943F0A009759F099832B
:1006C00088831B830A832C813D81232B59F7FC01EE
:1006D0001082E8CF80E0E7CFEF92FF920F931F9355
:1006E000CF93DF93EC017B018A01BA010E9444039E
:1006F00081110BC0CE010E94D302CE01DF91CF91B8
:100700001F910F91FF90EF9008951D830C83B70107
:10071000888199810E94160BF0CF4F925F926F9261
:100720007F928F929F92AF92BF92CF92DF92EF9281
:10073000FF920F931F93CF93DF93CDB7DEB72E9722
:100740000FB6F894DEBF0FBECDBFADB6BEB6880FF4
:10075000991F2DB73EB7281B390B0FB6F8943EBF33
:100760000FBE2DBF0DB71EB70F5F1F4F6801C80E1C
:10077000D91E780133E0432E512C612C712C0E943C
:10078000ED07A30192010E947A086F5F7F4F8F4FA0
:100790009F4FF701619371937F01EC15FD0579F788
:1007A00050E040E06EE171E085EA92E00E946C0367
:1007B0009E012F5F3F4F6901F801819091908F0159
:1007C0009092030280920202F1E08F16910409F0E8
:1007D0007DC061E088E00E94D60168EE73E080E0B1
:1007E00090E00E94470260E088E00E94D60168EE37
:1007F00073E080E090E00E9447021A8619861C860A
:100800001B861E861D866091A5027091A602611549
:10081000710541F04091A9025091AA02CE010996BA
:100820000E946C034AE0B601C4010E944508F6012B
:1008300001900020E9F73197EC19FD09B9F08D849A
:100840009E848E0E9F1EB401CE0109960E94440321
:10085000882309F45EC029853A858D859E85B60179
:10086000820F931F0E94160B9E868D8669857A855E
:100870006115710509F452C04D855E8585EA92E0E7
:100880000E946C03CE0109960E94E5020E151F0519
:1008900009F092CF0FB6F894BEBE0FBEADBE2E9635
:1008A0000FB6F894DEBF0FBECDBFDF91CF911F9181
:1008B0000F91FF90EF90DF90CF90BF90AF909F90FF
:1008C0008F907F906F905F904F90089522E08216F6
:1008D000910469F461E089E00E94D60168EE73E05A
:1008E00080E090E00E94470260E089E07ECF33E044
:1008F0008316910409F081CF61E08AE00E94D6015D
:1009000068EE73E080E090E00E94470260E08AE0D9
:100910006CCFCE0109960E94D302A8CF85EA92E05F
:100920000E94D302AFCFFC01118210821382128287
:1009300015821482FB0101900020E9F73197AF0185
:10094000461B570B0C946C030F931F93CF93DF93AD
:10095000CDB7DEB728970FB6F894DEBF0FBECDBF78
:100960008FE191E00E94B60288E092E00E942701A8
:10097000892BD1F388E092E00E942701892B09F4AA
:100980004FC01A8219821C821B821E821D8250E077
:1009900040E06EE171E0CE0101960E946C030E947E
:1009A000D90097FD1BC08F8318860D811E810F5FB4
:1009B0001F4FB801CE0101960E944403882379F3AA
:1009C00029813A818D819E81BE01695F7F4F820FAF
:1009D000931F0E94160B1E830D83E1CF8091AB0203
:1009E0009091AC02009749F169817A816115710596
:1009F00011F14091AD025091AE022D813E8142171E
:100A00005307C8F00E94160B8D819E819093B0020F
:100A10008093AF021E821D82CE0101960E94E502E4
:100A200028960FB6F894DEBF0FBECDBFDF91CF91F1
:100A30001F910F9108950E94B60989819A81909320
:100A4000AC028093AB028B819C819093AE02809329
:100A5000AD028D819E819093B0028093AF021A8285
:100A600019821C821B82D6CF1F920F920FB60F9253
:100A700011242F933F934F935F936F937F938F93A3
:100A80009F93AF93BF93EF93FF9388E092E00E9410
:100A90004701FF91EF91BF91AF919F918F917F910E
:100AA0006F915F914F913F912F910F900FBE0F90DB
:100AB0001F9018951F920F920FB60F9211242F932B
:100AC0008F939F93EF93FF93E0911802F091190297
:100AD0008081E0911E02F0911F0282FD1BC0908177
:100AE000809121028F5F8F7320912202821741F043
:100AF000E0912102F0E0E85FFD4F958F80932102A5
:100B0000FF91EF919F918F912F910F900FBE0F90BA
:100B10001F9018958081F4CF1F920F920FB60F92FD
:100B200011242F933F938F939F93AF93BF93809103
:100B3000040290910502A0910602B0910702309143
:100B4000FC0123E0230F2D3758F50196A11DB11D9F
:100B50002093FC018093040290930502A093060267
:100B6000B09307028091FD019091FE01A091FF01D9
:100B7000B09100020196A11DB11D8093FD019093DB
:100B8000FE01A093FF01B0930002BF91AF919F912E
:100B90008F913F912F910F900FBE0F901F9018953E
:100BA00026E8230F0296A11DB11DD2CFE8E0F2E0A6
:100BB0001382128288EE93E0A0E0B0E084839583F4
:100BC000A683B7838EE091E09183808385EC90E0EB
:100BD0009587848784EC90E09787868780EC90E007
:100BE000918B808B81EC90E0938B828B82EC90E0F8
:100BF000958B848B86EC90E0978B868B118E128E72
:100C0000138E148E6EE171E08BEA92E00E949304E1
:100C10006EE171E085EA92E00C949304CF93DF9348
:100C200000D000D000D0CDB7DEB7789484B5826014
:100C300084BD84B5816084BD85B5826085BD85B580
:100C4000816085BD80916E00816080936E001092FE
:100C50008100809181008260809381008091810079
:100C6000816080938100809180008160809380000A
:100C70008091B10084608093B1008091B000816068
:100C80008093B00080917A00846080937A00809194
:100C90007A00826080937A0080917A0081608093EC
:100CA0007A0080917A00806880937A001092C10067
:100CB000E0911802F091190282E08083E091140221
:100CC000F09115021082E0911602F09117028FEC5C
:100CD000808310922002E0911C02F0911D0286E0B8
:100CE0008083E0911A02F0911B02808180618083F1
:100CF000E0911A02F0911B02808188608083E0916C
:100D00001A02F0911B02808180688083E0911A02B0
:100D1000F0911B0280818F7D808328E030E0F90113
:100D2000EC55FF4F4491F901E057FF4F8491882320
:100D300099F090E0880F991FFC01EA57FF4FA591A9
:100D4000B491FC01E458FF4F859194918FB7F894CA
:100D5000EC91E42BEC938FBF2F5F3F4F2B3031058D
:100D6000F1F680E480937C0080917A008064809327
:100D70007A0080917A0086FDFCCF809178006091A6
:100D80007900762F682F072E000C880B990B6115C0
:100D900071058105910511F00E943C0880E0C82E84
:100DA00080E0D82E13E092E0E92E24E0B22EFF245A
:100DB000F39480910102823009F4A2C07CF488236C
:100DC000E1F1813009F479C0C114D10491F30E949A
:100DD0003301882371F30E940000EBCF833009F4C4
:100DE00096C0843089F780EC91E00E94B6020E94A0
:100DF000A40461E571E0CE0101960E949304809104
:100E0000AF029091B0022D813E8100E082179307DE
:100E100041F401E0892B29F0CE0101960E94ED02F8
:100E2000082FCE0101960E94E502002309F47CC040
:100E3000F092010287ED91E02CC087E391E00E94DF
:100E4000B60282E491E00E94B6020E94A40461E529
:100E500071E0CE0101960E9493048091AF029091BF
:100E6000B0022D813E8100E08217930741F401E03A
:100E7000892B29F0CE0101960E94ED02082FCE01A8
:100E800001960E94E502002369F0F092010283E5D9
:100E900091E00E94B60263E070E088EE93E00E9469
:100EA0007A0292CF1093010286E691E00E94B60288
:100EB00065E070E08CE291E0F2CF89E791E00E947A
:100EC000B60283E090E00E948D030E94A40420916A
:100ED000AF023091B0028091A9029091AA02281726
:100EE000390749F40E941803892B29F4E092010282
:100EF00085E891E0CECF109301028EE991E0D6CF44
:100F00008AEA91E00E94B60285E090E0DCCF86EBB1
:100F100091E00E94B60265E070E084E690E00E94F5
:100F20007A02B092010250CF1093010289EE91E053
:100F3000BDCF85EA92E00E94E5028BEA92E00C9434
:100F4000E5028F929F92AF92BF92CF92DF92EF9283
:100F5000FF92CF93DF93EC01688179818A819B8135
:100F6000611571058105910521F464E279ED8BE548
:100F700097E02DE133EF41E050E00E947A0849010B
:100F80005A019B01AC01A7EAB1E40E9499086B01E8
:100F90007C01ACEEB4EFA50194010E94A708C60E37
:100FA000D71EE81EF91EF7FE06C081E0C81AD10858
:100FB000E10880E8F80AC882D982EA82FB82C70188
:100FC000B6019F77DF91CF91FF90EF90DF90CF90A8
:100FD000BF90AF909F908F9008958F929F92AF9205
:100FE000BF92CF92DF92EF92FF92609100017091D9
:100FF0000101809102019091030161157105810544
:10100000910521F464E279ED8BE597E02DE133EF72
:1010100041E050E00E947A0849015A019B01AC016D
:10102000A7EAB1E40E9499086B017C01ACEEB4EF31
:10103000A50194010E94A708C60ED71EE81EF91E3E
:10104000F7FE06C081E0C81AD108E10880E8F80A76
:10105000C0920001D0920101E0920201F0920301DE
:10106000C701B6019F77FF90EF90DF90CF90BF90C0
:10107000AF909F908F90089560930001709301014D
:1010800080930201909303010895BB274A3031F405
:10109000992322F4BDE2909581959F4F0C945108BD
:1010A000BB27FB015527AA27880F991FAA1FA41742
:1010B00010F0A41B83955051B9F7A05DAA3308F036
:1010C000A95DA193009779F7B111B1931192CB016A
:1010D0000C946A08DC01FC01672F71917723E1F71A
:1010E000329704C07C916D9370836291AE17BF07F5
:1010F000C8F30895052E97FB1EF400940E949108F2
:1011000057FD07D00E94E30807FC03D04EF40C946F
:10111000910850954095309521953F4F4F4F5F4F27
:10112000089590958095709561957F4F8F4F9F4F53
:1011300008950E940509A59F900DB49F900DA49F4E
:10114000800D911D11240895B7FF0C9499080E94F9
:101150009908821B930B08952F923F924F925F92B2
:101160006F927F928F929F92AF92BF92CF92DF92B7
:10117000EF92FF920F931F93CF93DF93CDB7DEB71C
:10118000CA1BDB0B0FB6F894DEBF0FBECDBF0994B0
:101190002A88398848885F846E847D848C849B8407
:1011A000AA84B984C884DF80EE80FD800C811B8115
:1011B000AA81B981CE0FD11D0FB6F894DEBF0FBE44
:1011C000CDBFED010895A1E21A2EAA1BBB1BFD01A4
:1011D0000DC0AA1FBB1FEE1FFF1FA217B307E40716
:1011E000F50720F0A21BB30BE40BF50B661F771F6E
:1011F000881F991F1A9469F760957095809590954E
:101200009B01AC01BD01CF010895A29FB001B39F26
:10121000C001A39F700D811D1124911DB29F700DFF
:10122000811D1124911D0895EE0FFF1F0590F4916B
:10123000E02D09940F931F93CF93DF938230910594
:1012400010F482E090E0E091B302F091B40230E05B
:1012500020E0B0E0A0E0309799F42115310509F4C1
:101260004AC0281B390B24303105D8F58A819B816F
:101270006115710589F1FB0193838283FE0111C021
:10128000408151810281138148175907E0F04817C6
:10129000590799F4109761F012960C9312971396D0
:1012A0001C933296CF01DF91CF911F910F9108953A
:1012B0000093B3021093B402F4CF2115310551F01D
:1012C0004217530738F0A901DB019A01BD01DF0184
:1012D000F801C1CFEF01F9CF9093B4028093B3022C
:1012E000CDCFFE01E20FF31F81939193225031097C
:1012F00039832883D7CF2091B1023091B202232BBA
:1013000041F420910601309107013093B2022093FD
:10131000B10220910401309105012115310541F4FC
:101320002DB73EB74091080150910901241B350BA0
:10133000E091B102F091B202E217F307A0F42E1B84
:101340003F0B2817390778F0AC014E5F5F4F241729
:10135000350748F04E0F5F1F5093B2024093B10221
:10136000819391939FCFF0E0E0E09CCFCF93DF9308
:101370000097E9F0FC01329713821282A091B30228
:10138000B091B402ED0130E020E01097A1F420818B
:101390003181820F931F2091B1023091B202281740
:1013A000390709F061C0F093B202E093B102DF9116
:1013B000CF910895EA01CE17DF07E8F54A815B81F6
:1013C0009E0141155105B1F7E901FB83EA8349917B
:1013D0005991C40FD51FEC17FD0761F480819181ED
:1013E0000296840F951FE9019983888382819381F6
:1013F0009B838A83F0E0E0E012968D919C91139795
:101400000097B9F52D913C911197CD010296820F6D
:10141000931F2091B1023091B2022817390739F693
:10142000309751F51092B4021092B302B093B20209
:10143000A093B102BCCFD383C28340815181840F7A
:10144000951FC817D90761F44E5F5F4F8881998156
:10145000480F591F518340838A819B8193838283E4
:101460002115310509F0B0CFF093B402E093B30237
:101470009ECFFD01DC01C0CF13821282D7CFB0E036
:10148000A0E0E5E4FAE00C94AE088C01009751F47A
:10149000CB010E941A098C01C801CDB7DEB7E0E18B
:1014A0000C94CA08FC01E60FF71F9C012250310979
:1014B000E217F30708F49DC0D901CD91DC91119793
:1014C000C617D70798F0C530D10530F3CE01049781
:1014D0008617970708F3C61BD70B2297C193D193A2
:1014E0006D937C93CF010E94B609D6CF5B01AC1AF5
:1014F000BD0A4C018C0E9D1EA091B302B091B402A6
:10150000512C412CF12CE12C109731F58091B10236
:101510009091B2028815990509F05CC046165706ED
:1015200008F058C08091040190910501009741F4A2
:101530008DB79EB74091080150910901841B950B0E
:10154000E817F90708F055C0F093B202E093B10232
:10155000F90171836083A0CF8D919C9111971296B0
:101560006C90129713967C901397A815B90559F5AE
:101570006C0142E0C40ED11CCA14DB0420F1AC01A2
:101580004A195B09DA011296159780F0628273821C
:1015900051834083D9016D937C93E114F10471F080
:1015A000D7011396FC93EE93129776CF22968C0F69
:1015B0009D1FF90191838083F301EFCFF093B40273
:1015C000E093B30269CF4816590608F42C017D0157
:1015D000D3019ACFCB010E941A097C01009749F0F0
:1015E000AE01B8010E94040BC8010E94B609870130
:1015F00053CF10E000E050CF9111089581548A51EB
:1016000008F4805E855A0895FB01DC0102C0019058
:101610000D9241505040D8F70895FB01DC018D91A7
:10162000019080190110D9F3990B0895FB01DC0199
:1016300001900D920020E1F7089510E0CDE5D0E093
:1016400004C0FE010E9414092196CE35D107C9F7C6
:04165000F894FFCF3C
:10165400010000000000B5028000000000006901E4
:101664008900B600B6012701C50019010D0A002A38
:1016740020496E736972612073756120726573709D
:101684006F737461202A002A20494E4943494F2030
:101694002A00436F6D656361723F2028732F6E29A2
:1016A4000073004A6F676F20636F6D65C3A7616E37
:1016B400646F2E2E2E004A6F676F206EC3A36F20B7
:1016C400696E69636961646F002A204E6976656C8E
:1016D4002031202A005061726162656E732120708E
:1016E400726F78696D6F206E6976656C2E00457235
:1016F400726F6F6F6F6F212121002A204E6976650A
:101704006C2032202A0047616D65204F7665720097
:101714006A6F676172206E6F76616D656E74653F86
:101724002028732F6E29004A6F676F20636F6D65E1
:1017340063616E646F2E2E2E004A6F676F206E6198
:0C1744006F20696E69636961646F0000CA
:00000001FF
