:100000000C945E000C9486000C9486000C94860080
:100010000C9486000C9486000C9486000C94860048
:100020000C9486000C9486000C9486000C94860038
:100030000C9486000C9486000C9486000C94860028
:100040000C94AE050C9486000C947C050C9456051B
:100050000C9486000C9486000C9486000C94860008
:100060000C9486000C948600000000080002010039
:100070000003040700000000000000000000000072
:10008000250028002B0000000000240027002A0083
:10009000040404040404040402020202020203032E
:1000A0000303030301020408102040800102040836
:1000B0001020010204081020F8058C0811241FBE2E
:1000C000CFEFD8E0DEBFCDBF12E0A0E0B1E0EAE3C1
:1000D000F8E102C005900D92AA33B107D9F722E0EA
:1000E000AAE3B2E001C01D92A33FB207E1F710E01E
:1000F000CDE5D0E004C02197FE010E94070ACC356F
:10010000D107C9F70E9430060C94100C0C94000023
:100110000895AF92BF92CF92DF92EF92FF920F932A
:100120001F93CF93DF936C017B018B01040F151F8D
:10013000EB015E01AE18BF08C017D10759F06991F5
:10014000D601ED91FC910190F081E02DC601099559
:10015000892B79F7C501DF91CF911F910F91FF9006
:10016000EF90DF90CF90BF90AF900895FC01538D3A
:10017000448D252F30E0842F90E0821B930B541781
:1001800010F0CF96089501970895FC01918D828D0E
:10019000981761F0A28DAE0FBF2FB11D5D968C91A7
:1001A000928D9F5F9F73928F90E008958FEF9FEFE6
:1001B00008952FB7F8948091420290914302A09144
:1001C0004402B09145022FBF80934E0290934F029C
:1001D000A0935002B093510286E492E00E94C500C1
:1001E00097FF26C02FB7F894809142029091430266
:1001F000A0914402B09145022FBF40914E02509110
:100200004F026091500270915102841B950BA60B16
:10021000B70B40914A0250914B0260914C02709191
:100220004D0284179507A607B707B0F28FEF9FEF2F
:100230000895FC01918D828D981731F0828DE80F21
:10024000F11D858D90E008958FEF9FEF0895FC01DB
:10025000918D228D892F90E0805C9F4F821B9109A8
:100260008F739927089586E492E00E94270121E088
:10027000892B09F420E0822F089580E090E0892BFB
:1002800029F00E94330181110C9400000895FC01B3
:10029000A48DA80FB92FB11DA35ABF4F2C91848DE7
:1002A00090E001968F739927848FA689B7892C9344
:1002B000A089B1898C91837080648C93938D848D97
:1002C000981306C00288F389E02D80818F7D80839A
:1002D0000895EF92FF920F931F93CF93DF93EC015A
:1002E00081E0888F9B8D8C8D98131AC0E889F989DD
:1002F000808185FF15C09FB7F894EE89FF896083E0
:10030000E889F98980818370806480839FBF81E060
:1003100090E0DF91CF911F910F91FF90EF900895A2
:10032000F62E0B8D10E00F5F1F4F0F731127E02E7D
:100330008C8D8E110CC00FB607FCFACFE889F989B5
:10034000808185FFF5CFCE010E944701F1CFEB8D73
:10035000EC0FFD2FF11DE35AFF4FF0829FB7F89489
:100360000B8FEA89FB8980818062CFCFCF93DF93A7
:10037000EC01888D8823B9F0AA89BB89E889F989BD
:100380008C9185FD03C0808186FD0DC00FB607FCF2
:10039000F7CF8C9185FFF2CF808185FFEDCFCE0125
:1003A0000E944701E9CFDF91CF91089590E0FC01D1
:1003B000E859FF4F2491FC01EC55FF4F3491FC01AB
:1003C000E057FF4FE491EE23C9F0222339F02330A8
:1003D00001F1A8F4213019F1223029F1F0E0EE0FFB
:1003E000FF1FE458FF4FA591B4918FB7F894EC919B
:1003F000611126C030953E233C938FBF089527306E
:10040000A9F02830C9F0243049F7809180008F7D11
:1004100003C0809180008F7780938000DFCF84B508
:100420008F7784BDDBCF84B58F7DFBCF8091B0000B
:100430008F778093B000D2CF8091B0008F7DF9CFBD
:100440003E2BDACF3FB7F89480913D0290913E0267
:10045000A0913F02B091400226B5A89B05C02F3F56
:1004600019F00196A11DB11D3FBFBA2FA92F982FDA
:100470008827BC01CD01620F711D811D911D42E0D5
:10048000660F771F881F991F4A95D1F708958F929D
:100490009F92AF92BF92CF92DF92EF92FF926B0149
:1004A0007C010E9422024B015C01C114D104E104D1
:1004B000F104B9F00E942202681979098A099B099E
:1004C000683E73408105910580F321E0C21AD1088E
:1004D000E108F10888EE880E83E0981EA11CB11C8B
:1004E000E4CFFF90EF90DF90CF90BF90AF909F90C0
:1004F0008F900895BF92CF92DF92EF92FF920F9369
:100500001F93CF93DF938B01D0E0C0E06C01990F74
:10051000EE08FF0896E0B92E61E08B2D0E94D6010F
:10052000B3948CE0B812F8CFC701B6010E9447021D
:1005300086E0B82E60E08B2D0E94D601B3948CE04B
:10054000B812F8CFC701B6010E94470221960C17D6
:100550001D0701F7DF91CF911F910F91FF90EF9051
:10056000DF90CF90BF90089542E050E060E271E0EC
:1005700086E492E00C948900CF93DF93FC01019014
:100580000020E9F73197AF01481B590BBC0186E405
:1005900092E00E948900EC010E94B4028C0F9D1F22
:1005A000DF91CF910895EF92FF920F931F93CF9316
:1005B000DF930091E9021091EA02FC01C081D18130
:1005C000F80181918F018823B9F0082E000C990B56
:1005D0000E94EF0B7C018991082E000C990B0E9460
:1005E000EF0BE816F90661F380E0DF91CF911F91E0
:1005F0000F91FF90EF90089581E0F7CF0F931F9335
:10060000CF93DF93EC0188819981009759F02A817B
:100610003B812617370730F081E0DF91CF911F91A2
:100620000F9108958B016F5F7F4F0E94320B0097EF
:1006300059F0998388831B830A832C813D81232B66
:1006400059F7FC011082E8CF80E0E7CFEF92FF92EC
:100650000F931F93CF93DF936115710541F480E0F1
:10066000DF91CF911F910F91FF90EF900895411569
:100670005105B1F07B01EC010C811D81040F151FA8
:10068000B8010E94FE02882351F3288139818C81B0
:100690009D81B701820F931F0E94090C1D830C835B
:1006A00081E0DECFCF93DF93EC01888199810097C1
:1006B00011F00E94A90A198218821D821C821B82D5
:1006C0001A82DF91CF910895EF92FF920F931F93BB
:1006D000CF93DF93CDB7DEB728970FB6F894DEBF80
:1006E0000FBECDBF7C01CB014AE08E010F5F1F4FD3
:1006F000B8010E943809F80101900020E9F731970C
:10070000AF01401B510BB801C7010E9426038111A4
:1007100003C0C7010E945203C70128960FB6F89480
:10072000DEBF0FBECDBFDF91CF911F910F91FF9024
:10073000EF900895EF92FF920F931F93CF93DF9363
:10074000EC017B018A01BA010E94FE0281110BC0FB
:10075000CE010E945203CE01DF91CF911F910F91E4
:10076000FF90EF9008951D830C83B70188819981D4
:100770000E94090CF0CFCF93DF93EC01FB018617A9
:10078000970749F0608171816115710541F04481DD
:1007900055810E949A03CE01DF91CF9108950E9466
:1007A0005203F9CFFC01118210821382128215824A
:1007B0001482FB0101900020E9F73197AF01461B3D
:1007C000570B0C949A03FC0180819181009711F0E2
:1007D0000C94A90A0895CF93DF93CDB7DEB728977D
:1007E0000FB6F894DEBF0FBECDBF83E291E00E944A
:1007F000BC0286E492E00E942701892BD1F386E4B3
:1008000092E00E942701892BC1F162E271E0CE01E2
:1008100001960E94D2030E94D90097FD0CC08F83DD
:10082000188641E050E0BE01695F7F4FCE0101961E
:100830000E942603F0CF8091E9029091EA0200978E
:1008400039F169817A816115710501F14091EB02FD
:100850005091EC022D813E8142175307B8F00E945F
:10086000090C8D819E819093EE028093ED021E8291
:100870001D82CE0101960E94E30328960FB6F894DC
:10088000DEBF0FBECDBFDF91CF9108950E94A90AB0
:1008900089819A819093EA028093E9028B819C81FD
:1008A0009093EC028093EB028D819E819093EE02F7
:1008B0008093ED021A8219821C821B82D8CF2F925C
:1008C0003F924F925F926F927F928F929F92AF92E0
:1008D000BF92CF92DF92EF92FF920F931F93CF932D
:1008E000DF9300D000D000D0CDB7DEB72C015B0184
:1008F0002DB63EB6CB01880F991F2DB73EB7281BEA
:10090000390B0FB6F8943EBF0FBE2DBF8DB79EB703
:1009100001966C017C0110E000E036E0632E712C42
:10092000812C912C0A151B058CF40E94E008A4016F
:1009300093010E946D096F5F7F4F8F4F9F4FF701AB
:10094000619371937F010F5F1F4FECCF50E040E048
:1009500062E271E083EE92E00E949A03F12CE12CB6
:10096000052C000C66087708EA14FB040CF080C024
:10097000F601019111916F0110933B0200933A022D
:100980000130110571F561E086E00E94D601C301D6
:10099000B2010E94470260E086E00E94D601C301D6
:1009A000B2010E9447021A8219821C821B821E8297
:1009B0001D8263EE72E0CE0101960E94BB03B80176
:1009C000CE0101960E946403BC0183EE92E00E9476
:1009D000BB03CE0101960E94E303FFEFEF1AFF0A6B
:1009E000C3CF0230110559F461E087E00E94D601BF
:1009F000C301B2010E94470260E087E0CECF03301E
:100A0000110559F461E088E00E94D601C301B201EA
:100A10000E94470260E088E0C0CF0430110559F41D
:100A200061E089E00E94D601C301B2010E94470241
:100A300060E089E0B2CF0530110559F461E08AE049
:100A40000E94D601C301B2010E94470260E08AE021
:100A5000A4CF0630110509F0A6CF61E08BE00E941B
:100A6000D601C301B2010E94470260E08BE095CF3E
:100A70000FB6F8943EBE0FBE2DBE26960FB6F89464
:100A8000DEBF0FBECDBFDF91CF911F910F91FF90C1
:100A9000EF90DF90CF90BF90AF909F908F907F901E
:100AA0006F905F904F903F902F9008951F920F92FC
:100AB0000FB60F9211242F933F934F935F936F9331
:100AC0007F938F939F93AF93BF93EF93FF9386E4AE
:100AD00092E00E944701FF91EF91BF91AF919F91EA
:100AE0008F917F916F915F914F913F912F910F90D7
:100AF0000FBE0F901F9018951F920F920FB60F9276
:100B000011242F938F939F93EF93FF93E0915602BD
:100B1000F09157028081E0915C02F0915D0282FDCC
:100B20001BC0908180915F028F5F8F732091600264
:100B3000821741F0E0915F02F0E0EA5BFD4F958F94
:100B400080935F02FF91EF919F918F912F910F9072
:100B50000FBE0F901F9018958081F4CF1F920F92B7
:100B60000FB60F9211242F933F938F939F93AF93C0
:100B7000BF938091420290914302A0914402B091B0
:100B8000450230913C0223E0230F2D3758F50196A2
:100B9000A11DB11D20933C02809342029093430219
:100BA000A0934402B093450280913D0290913E0291
:100BB000A0913F02B09140020196A11DB11D80930A
:100BC0003D0290933E02A0933F02B0934002BF913A
:100BD000AF919F918F913F912F910F900FBE0F90EA
:100BE0001F90189526E8230F0296A11DB11DD2CFA4
:100BF000E6E4F2E01382128288EE93E0A0E0B0E037
:100C000084839583A683B78382E191E09183808377
:100C100085EC90E09587848784EC90E097878687C1
:100C200080EC90E0918B808B81EC90E0938B828BB9
:100C300082EC90E0958B848B86EC90E0978B868B92
:100C4000118E128E138E148E62E271E089EE92E0A4
:100C50000E94D20362E271E083EE92E00C94D20330
:100C6000CF93DF93CDB7DEB762970FB6F894DEBFB0
:100C70000FBECDBF789484B5826084BD84B5816099
:100C800084BD85B5826085BD85B5816085BD809157
:100C90006E00816080936E001092810080918100CF
:100CA00082608093810080918100816080938100C7
:100CB000809180008160809380008091B100846089
:100CC0008093B1008091B00081608093B0008091EA
:100CD0007A00846080937A0080917A0082608093A9
:100CE0007A0080917A00816080937A0080917A0006
:100CF000806880937A001092C100E0915602F091D2
:100D0000570282E08083E0915202F09153021082F8
:100D1000E0915402F09155028FEC808310925E02B4
:100D2000E0915A02F0915B0286E08083E0915802E4
:100D3000F0915902808180618083E0915802F091A6
:100D40005902808188608083E0915802F0915902B5
:100D5000808180688083E0915802F09159028081FF
:100D60008F7D808326E030E0F901EC55FF4F449100
:100D7000F901E057FF4F8491882399F090E0880FA4
:100D8000991FFC01EA57FF4FA591B491FC01E4586B
:100D9000FF4F859194918FB7F894EC91E42BEC93ED
:100DA0008FBF2F5F3F4F2C303105F1F680E48093E9
:100DB0007C0080917A00806480937A0080917A0030
:100DC00086FDFCCF8091780060917900762F682FA6
:100DD000072E000C880B990B611571058105910593
:100DE00011F00E942F0990E0C92E90E0D92E23E047
:100DF000922E34E0832EEE24E394F12CBB24B394A2
:100E000082E0A82E80914102823009F40EC17CF468
:100E1000882349F1813009F46AC0C114D10491F3E7
:100E20000E943301882351F30E940000E7CF8330F2
:100E300009F40CC1843089F782E291E00E94BC027F
:100E40008EEE91E00E94BC0282E291E00E94BC0220
:100E500083E192E00E94BC02F0920301E092020161
:100E600010924102DACF82E291E00E94BC028DE34F
:100E700091E00E94BC028AE491E00E94BC020E94C0
:100E8000EB0369E571E0CE0101960E94D2038091E7
:100E9000ED029091EE022D813E8110E082179307C2
:100EA00041F411E0892B29F0CE0101960E94D30272
:100EB000182FCE0101960E94E303112359F0B0923E
:100EC00041028BE591E00E94BC0263E070E088EE95
:100ED00093E00AC01092410288E691E00E94BC02B1
:100EE00065E070E08CE291E00E947A0296CF82E2A7
:100EF00091E00E94BC0266E471E0CE0101960E947E
:100F0000D20300910201109103016AE771E0CE0162
:100F10000D960E94D20318861F821A8619861C8697
:100F20001B86BE01635F7F4FCE0107960E94BB0305
:100F3000B801CE0107960E9464038C014D815E8149
:100F400069817A810E942603811103C0C8010E9431
:100F50005203F801448155816081718186E492E0F9
:100F60000E9489000E94B402CE0107960E94E3030A
:100F7000CE010D960E94E303CE0101960E94E30389
:100F800060910201709103016130710541F563E0E8
:100F900070E088EE93E00E945F040E94EB032091D2
:100FA000ED023091EE028091E7029091E80228175D
:100FB0003907B1F58091E9029091EA026091E3026C
:100FC0007091E402009709F473C06115710589F40A
:100FD000232B09F47BC0FC01808190E074C08091D8
:100FE00000019091010165307105ACF665E070E09B
:100FF000D0CF0E94000C67C0883091053CF48091EE
:101000000001909101018055910981C00A970CF06F
:1010100004CF80910001909101018F55910977C013
:10102000A09241028DE991E059CF82E291E00E94C5
:10103000BC0283EB91E00E94BC0265E070E084E6B4
:1010400090E00E947A0290924102E7CE85EC91E016
:101050000E94BC020E94EB0369E571E0CE0101969B
:101060000E94D2038091ED029091EE022D813E818B
:1010700010E08217930741F411E0892B29F0CE018B
:1010800001960E94D302182FCE0101960E94E3031D
:10109000112359F0B09241028CED91E00E94BC0204
:1010A000F0920301E092020110CF8092410214CF2E
:1010B0006115710559F0232B49F0FB01808190E007
:1010C000919581959109892B09F0AACF8091020110
:1010D000909103010196909303018093020184E8AB
:1010E00091E00E94BC0263E070E088EE93E00E9411
:1010F0007A028091020190910301853091050CF0F4
:101100007BCF8091000190910101865491099093C9
:1011100001018093000181CE83EE92E00E94E303FF
:1011200089EE92E00C94E3038F929F92AF92BF926C
:10113000CF92DF92EF92FF92CF93DF93EC01688121
:1011400079818A819B81611571058105910521F461
:1011500064E279ED8BE597E02DE133EF41E050E07B
:101160000E946D0949015A019B01AC01A7EAB1E453
:101170000E948C096B017C01ACEEB4EFA5019401D7
:101180000E949A09C60ED71EE81EF91EF7FE06C079
:1011900081E0C81AD108E10880E8F80AC882D9823B
:1011A000EA82FB82C701B6019F77DF91CF91FF9062
:1011B000EF90DF90CF90BF90AF909F908F90089569
:1011C0008F929F92AF92BF92CF92DF92EF92FF9257
:1011D00060910401709105018091060190910701D1
:1011E000611571058105910521F464E279ED8BE5C6
:1011F00097E02DE133EF41E050E00E946D09490195
:101200005A019B01AC01A7EAB1E40E948C096B0171
:101210007C01ACEEB4EFA50194010E949A09C60EC0
:10122000D71EE81EF91EF7FE06C081E0C81AD108D5
:10123000E10880E8F80AC0920401D0920501E0922A
:101240000601F0920701C701B6019F77FF90EF906A
:10125000DF90CF90BF90AF909F908F900895609354
:10126000040170930501809306019093070108958E
:10127000BB274A3031F4992322F4BDE29095819541
:101280009F4F0C944409BB27FB015527AA27880FC1
:10129000991FAA1FA41710F0A41B83955051B9F7EA
:1012A000A05DAA3308F0A95DA193009779F7B11169
:1012B000B1931192CB010C945D09DC01FC01672F05
:1012C00071917723E1F7329704C07C916D9370831D
:1012D0006291AE17BF07C8F30895052E97FB1EF461
:1012E00000940E94840957FD07D00E94D60907FC8C
:1012F00003D04EF40C948409509540953095219577
:101300003F4F4F4F5F4F0895909580957095619531
:101310007F4F8F4F9F4F08950E94F809A59F900D12
:10132000B49F900DA49F800D911D11240895B7FFC7
:101330000C948C090E948C09821B930B08952F92A8
:101340003F924F925F926F927F928F929F92AF9255
:10135000BF92CF92DF92EF92FF920F931F93CF93A2
:10136000DF93CDB7DEB7CA1BDB0B0FB6F894DEBF39
:101370000FBECDBF09942A88398848885F846E845F
:101380007D848C849B84AA84B984C884DF80EE80A9
:10139000FD800C811B81AA81B981CE0FD11D0FB6B2
:1013A000F894DEBF0FBECDBFED010895A1E21A2E65
:1013B000AA1BBB1BFD010DC0AA1FBB1FEE1FFF1FF9
:1013C000A217B307E407F50720F0A21BB30BE40B49
:1013D000F50B661F771F881F991F1A9469F7609590
:1013E0007095809590959B01AC01BD01CF0108954A
:1013F000A29FB001B39FC001A39F700D811D112456
:10140000911DB29F700D811D1124911D0895EE0F45
:10141000FF1F0590F491E02D09940F931F93CF9334
:10142000DF938230910510F482E090E0E091F102C8
:10143000F091F20230E020E0B0E0A0E0309799F4C3
:101440002115310509F44AC0281B390B2430310518
:10145000D8F58A819B816115710589F1FB01938320
:101460008283FE0111C0408151810281138148179E
:101470005907E0F04817590799F4109761F0129650
:101480000C93129713961C933296CF01DF91CF9154
:101490001F910F9108950093F1021093F202F4CF7F
:1014A0002115310551F04217530738F0A901DB012E
:1014B0009A01BD01DF01F801C1CFEF01F9CF90938F
:1014C000F2028093F102CDCFFE01E20FF31F819370
:1014D00091932250310939832883D7CF2091EF028D
:1014E0003091F002232B41F420910A0130910B013D
:1014F0003093F0022093EF0220910801309109010E
:101500002115310541F42DB73EB740910C015091A2
:101510000D01241B350BE091EF02F091F002E21770
:10152000F307A0F42E1B3F0B2817390778F0AC0106
:101530004E5F5F4F2417350748F04E0F5F1F5093E3
:10154000F0024093EF02819391939FCFF0E0E0E0AF
:101550009CCFCF93DF930097E9F0FC013297138281
:101560001282A091F102B091F202ED0130E020E090
:101570001097A1F420813181820F931F2091EF02F7
:101580003091F0022817390709F061C0F093F0029A
:10159000E093EF02DF91CF910895EA01CE17DF07C4
:1015A000E8F54A815B819E0141155105B1F7E901DA
:1015B000FB83EA8349915991C40FD51FEC17FD07AE
:1015C00061F4808191810296840F951FE9019983CE
:1015D0008883828193819B838A83F0E0E0E0129686
:1015E0008D919C9113970097B9F52D913C9111978E
:1015F000CD010296820F931F2091EF023091F002ED
:101600002817390739F6309751F51092F2021092E7
:10161000F102B093F002A093EF02BCCFD383C28358
:1016200040815181840F951FC817D90761F44E5F1F
:101630005F4F88819981480F591F518340838A8168
:101640009B81938382832115310509F0B0CFF093FC
:10165000F202E093F1029ECFFD01DC01C0CF1382C4
:101660001282D7CFB0E0A0E0E8E3FBE00C94A10940
:101670008C01009751F4CB010E940D0A8C01C80126
:10168000CDB7DEB7E0E10C94BD09FC01E60FF71F12
:101690009C0122503109E217F30708F49DC0D901DB
:1016A000CD91DC911197C617D70798F0C530D105B9
:1016B00030F3CE0104978617970708F3C61BD70BA4
:1016C0002297C193D1936D937C93CF010E94A90A75
:1016D000D6CF5B01AC1ABD0A4C018C0E9D1EA091A9
:1016E000F102B091F202512C412CF12CE12C109717
:1016F00031F58091EF029091F0028815990509F07B
:101700005CC04616570608F058C0809108019091B9
:101710000901009741F48DB79EB740910C0150919B
:101720000D01841B950BE817F90708F055C0F093DD
:10173000F002E093EF02F90171836083A0CF8D91F5
:101740009C91119712966C90129713967C90139718
:10175000A815B90559F56C0142E0C40ED11CCA1494
:10176000DB0420F1AC014A195B09DA0112961597E6
:1017700080F06282738251834083D9016D937C93A0
:10178000E114F10471F0D7011396FC93EE931297D4
:1017900076CF22968C0F9D1FF90191838083F301F0
:1017A000EFCFF093F202E093F10269CF48165906A9
:1017B00008F42C017D01D3019ACFCB010E940D0AC0
:1017C0007C01009749F0AE01B8010E94F70BC801F7
:1017D0000E94A90A870153CF10E000E050CF911179
:1017E000089581548A5108F4805E855A0895FB015A
:1017F000DC0102C001900D9241505040D8F708958D
:10180000FB01DC018D91019080190110D9F3990B36
:101810000895FB01DC0101900D920020E1F708958D
:1018200010E0CDE5D0E004C0FE010E94070A219639
:0A183000CE35D107C9F7F894FFCFB9
:10183A00E8030100010000000000F302800000003C
:10184A00000069018900B600B6012701C500190127
:10185A000D0A002A2E20496E736972612073756120
:10186A0020726573706F737461202E2A002A2E20ED
:10187A00494E4943494F202E2A00436F6D656361E3
:10188A00723F2028732F6E29007300496E696369BD
:10189A00616E646F2E2E2E004A6F676F206E616F25
:1018AA0020696E69636961646F002A2E204E697629
:1018BA00656C20005061726162656E7321207072DE
:1018CA006F78696D6F206E6976656C2E0041616173
:1018DA0068206E616F2C20766F6365206572726F67
:1018EA007521002A2E2A2047616D65204F76657280
:1018FA00202A2E2A006A6F676172206E6F76616DE8
:10190A00656E74653F2028732F6E29004A6F676FD2
:10191A0020636F6D6563616E646F2E2E2E004F62B9
:10192A0072696761646120706F72206A6F676172A1
:10193A00212041746520612070726F78696D612081
:10194A003A29002A2D2A2D2A2D2A2D2A2D2A2D2AF6
:10195A002D2A2D2A2D2A2D2A2D2A2D2A2D2A2D2AC5
:0A196A002D2A2D2A2D2A2D2A000017
:00000001FF
