:100000000C9462000C948A000C948A000C948A0070
:100010000C948A000C948A000C948A000C948A0038
:100020000C948A000C948A000C948A000C948A0028
:100030000C948A000C948A000C948A000C948A0018
:100040000C949C030C948A000C946A030C94440353
:100050000C948A000C948A000C948A000C948A00F8
:100060000C948A000C948A000000000023002600F3
:10007000290000000008000201000003040700003E
:1000800000000000000000000000250028002B00F8
:1000900000000000240027002A00040404040404D3
:1000A0000404020202020202030303030303010227
:1000B00004081020408001020408102001020408F6
:1000C00010200D0511241FBECFEFD8E0DEBFCDBF3D
:1000D00021E0A0E2B1E001C01D92AE3CB207E1F721
:1000E00011E0A0E0B1E0E0E4FFE002C005900D9275
:1000F000A032B107D9F710E0C2E6D0E004C02197E2
:10010000FE010E94A605C136D107C9F70E94E60389
:100110000C949E070C940000CF93DF9390E0FC01B9
:10012000E255FF4F249186569F4FFC01849188230E
:10013000C1F090E0880F991FFC01E057FF4FC59177
:10014000D491FC01EA57FF4FA591B4919FB7F89461
:100150003881822F809583238883EC91E22BEC9366
:100160009FBFDF91CF910895AF92BF92CF92DF9260
:10017000EF92FF920F931F93CF93DF936C017B015C
:100180008B01040F151FEB015E01AE18BF08C017ED
:10019000D10759F06991D601ED91FC910190F08160
:1001A000E02DC6010995892B79F7C501DF91CF9123
:1001B0001F910F91FF90EF90DF90CF90BF90AF9085
:1001C0000895CF93DF93FC01448155816081718153
:1001D0008DE291E00E94B400EC0142E050E068E161
:1001E00071E08DE291E00E94B4008C0F9D1FDF91C1
:1001F000CF910895FC01538D448D252F30E0842F3D
:1002000090E0821B930B541710F0CF96089501973E
:100210000895FC01918D828D981761F0A28DAE0F2B
:10022000BF2FB11D5D968C91928D9F5F9F73928FB2
:1002300090E008958FEF9FEF0895FC01918D828DDE
:10024000981731F0828DE80FF11D858D90E00895AB
:100250008FEF9FEF0895FC01918D228D892F90E003
:10026000805C9F4F821B91098F73992708958DE2BF
:1002700091E00E942B0121E0892B09F420E0822FDC
:10028000089580E090E0892B29F00E9437018111C8
:100290000C9400000895FC01A48DA80FB92FB11D86
:1002A000A35ABF4F2C91848D90E001968F739927AC
:1002B000848FA689B7892C93A089B1898C9183708A
:1002C00080648C93938D848D981306C00288F38983
:1002D000E02D80818F7D80830895EF92FF920F93B0
:1002E0001F93CF93DF93EC0181E0888F9B8D8C8DE2
:1002F00098131AC0E889F989808185FF15C09FB7D6
:10030000F894EE89FF896083E889F9898081837098
:10031000806480839FBF81E090E0DF91CF911F9147
:100320000F91FF90EF900895F62E0B8D10E00F5F68
:100330001F4F0F731127E02E8C8D8E110CC00FB63E
:1003400007FCFACFE889F989808185FFF5CFCE01D6
:100350000E944B01F1CFEB8DEC0FFD2FF11DE35A05
:10036000FF4FF0829FB7F8940B8FEA89FB89808159
:100370008062CFCFCF93DF93EC01888D8823B9F0D3
:10038000AA89BB89E889F9898C9185FD03C08081A0
:1003900086FD0DC00FB607FCF7CF8C9185FFF2CF1D
:1003A000808185FFEDCFCE010E944B01E9CFDF9127
:1003B000CF91089590E0FC01EE58FF4F2491FC018D
:1003C000E255FF4F3491FC01E656FF4FE491EE23D6
:1003D000C1F1222339F02330E9F090F4213001F10A
:1003E000223011F1F0E0EE0FFF1FE859FF4FA59109
:1003F000B491EC91E32381E090E029F580E0089549
:100400002730A9F02830C9F0243061F780918000AE
:100410008F7D03C0809180008F7780938000E2CF32
:1004200084B58F7784BDDECF84B58F7DFBCF80917F
:10043000B0008F778093B000D5CF8091B0008F7DD2
:10044000F9CF80E090E008958E3008F08E508770EC
:10045000806480937C0080917A00806480937A002D
:1004600080917A0086FDFCCF809178009091790090
:1004700008953FB7F8948091250190912601A091AD
:100480002701B091280126B5A89B05C02F3F19F080
:100490000196A11DB11D3FBFBA2FA92F982F882704
:1004A000BC01CD01620F711D811D911D42E0660FDF
:1004B000771F881F991F4A95D1F708958F929F92B1
:1004C000AF92BF92CF92DF92EF92FF920E943902D9
:1004D0004B015C0184EFC82EDD24D394E12CF12C78
:1004E0000E943902681979098A099B09683E73409C
:1004F00081059105A8F321E0C21AD108E108F108AD
:1005000088EE880E83E0981EA11CB11CC114D10492
:10051000E104F10429F7FF90EF90DF90CF90BF90B6
:10052000AF909F908F900895CF93DF93EC018881D7
:100530009981009711F00E944806198218821D8245
:100540001C821B821A82DF91CF910895FC01808169
:100550009181009711F00C94480608950F931F9312
:10056000CF93DF93EC0188819981009759F02A811C
:100570003B812617370730F081E0DF91CF911F9143
:100580000F9108958B016F5F7F4F0E94D1060097F6
:1005900059F0998388831B830A832C813D81232B07
:1005A00059F7FC011082E8CF80E0E7CFCF92DF92CD
:1005B000EF92FF920F931F93CF93DF93CDB7DEB7E8
:1005C00028970FB6F894DEBF0FBECDBF7C01CB01DC
:1005D0004AE09E012F5F3F4F6901B9010E943A0531
:1005E000F60101900020E9F73197EC19FD09D9F0E7
:1005F000D70114960D911C910E0F1F1FB801C70152
:100600000E94AE02882381F0F7012081318184812C
:100610009581B601820F931F0E949707D701159607
:100620001C930E93149781E028960FB6F894DEBFC2
:100630000FBECDBFDF91CF911F910F91FF90EF9033
:10064000DF90CF900895EF92FF920F931F93CF9377
:10065000DF93EC017B018A01BA010E94AE02811195
:100660000BC0CE010E949402CE01DF91CF911F9169
:100670000F91FF90EF9008951D830C83B70188813F
:1006800099810E949707F0CF1F920F920FB60F9299
:1006900011242F933F934F935F936F937F938F9387
:1006A0009F93AF93BF93EF93FF938DE291E00E94EE
:1006B0004B01FF91EF91BF91AF919F918F917F91EE
:1006C0006F915F914F913F912F910F900FBE0F90BF
:1006D0001F9018951F920F920FB60F9211242F930F
:1006E0008F939F93EF93FF93E0913D01F0913E0133
:1006F0008081E0914301F091440182FD1BC0908113
:10070000809146018F5F8F7320914701821741F0DE
:10071000E0914601F0E0E35DFE4F958F8093460146
:10072000FF91EF919F918F912F910F900FBE0F909E
:100730001F9018958081F4CF1F920F920FB60F92E1
:1007400011242F933F938F939F93AF93BF938091E7
:10075000210190912201A0912301B09124013091B7
:10076000200123E0230F2D3758F50196A11DB11D5F
:10077000209320018093210190932201A0932301D3
:10078000B09324018091250190912601A091270129
:10079000B09128010196A11DB11D80932501909370
:1007A0002601A0932701B0932801BF91AF919F919B
:1007B0008F913F912F910F900FBE0F901F90189522
:1007C00026E8230F0296A11DB11DD2CFCF93DF9350
:1007D000CDB7DEB72C970FB6F894DEBF0FBECDBFF6
:1007E000789484B5826084BD84B5816084BD85B50C
:1007F000826085BD85B5816085BD80916E00816018
:1008000080936E00109281008091810082608093BD
:1008100081008091810081608093810080918000BF
:100820008160809380008091B10084608093B100EA
:100830008091B00081608093B00080917A008460E4
:1008400080937A0080917A00826080937A00809110
:100850007A00816080937A0080917A00806880932A
:100860007A001092C10082E00E948C0083E00E9416
:100870008C00E0913D01F0913E0182E08083E091A7
:100880003901F0913A011082E0913B01F0913C0175
:100890008FEC808310924501E0914101F09142017B
:1008A00086E08083E0913F01F0914001808180618A
:1008B0008083E0913F01F0914001808188608083D6
:1008C000E0913F01F0914001808180688083E09158
:1008D0003F01F091400180818F7D808380E0E82E90
:1008E00080E0F82E82E00E94DA018C0190932C01C6
:1008F00080932B0183E00E94DA0190932A01809378
:100900002901012BE1F58EE00E9424028C0118865A
:100910001F821A8619861C861B8641E050E06BE117
:1009200071E0CE0107960E9423031A8219821C826D
:100930001B821E821D826F8178856115710531F0E1
:100940004B855C85CE0101960E942303B801CE0140
:1009500001960E94D602811104C0CE0101960E9428
:100960009402CE0101960E94E100CE0101960E9400
:10097000A602CE0107960E94A6020E945E02809106
:10098000290190912A01892BE1F58FE00E94240230
:100990008C0118861F821A8619861C861B8641E0E8
:1009A00050E06DE171E0CE0107960E9423031A82A8
:1009B00019821C821B821E821D826F8178856115BF
:1009C000710531F04B855C85CE0101960E942303B1
:1009D000B801CE0101960E94D602811104C0CE0159
:1009E00001960E949402CE0101960E94E100CE0180
:1009F00001960E94A602CE0107960E94A6020E94BE
:100A00005E02E114F10409F46DCF0E9437018823DE
:100A100009F468CF0E94000065CFEDE2F1E0138297
:100A2000128288EE93E0A0E0B0E084839583A683F1
:100A3000B7838AE091E09183808385EC90E095878D
:100A4000848784EC90E09787868780EC90E0918B98
:100A5000808B81EC90E0938B828B82EC90E0958B85
:100A6000848B86EC90E0978B868B118E128E138E82
:100A7000148E0895BB274A3031F4992322F4BDE245
:100A8000909581959F4F0C944605BB27FB015527F8
:100A9000AA27880F991FAA1FA41710F0A41B8395DB
:100AA0005051B9F7A05DAA3308F0A95DA193009752
:100AB00079F7B111B1931192CB010C945F05DC0170
:100AC000FC01672F71917723E1F7329704C07C9185
:100AD0006D9370836291AE17BF07C8F308952F928C
:100AE0003F924F925F926F927F928F929F92AF92BE
:100AF000BF92CF92DF92EF92FF920F931F93CF930B
:100B0000DF93CDB7DEB7CA1BDB0B0FB6F894DEBFA1
:100B10000FBECDBF09942A88398848885F846E84C7
:100B20007D848C849B84AA84B984C884DF80EE8011
:100B3000FD800C811B81AA81B981CE0FD11D0FB61A
:100B4000F894DEBF0FBECDBFED010895EE0FFF1F7D
:100B50000590F491E02D09940F931F93CF93DF93A9
:100B60008230910510F482E090E0E091CC01F091A8
:100B7000CD0130E020E0B0E0A0E0309799F42115FD
:100B8000310509F44AC0281B390B24303105D8F54A
:100B90008A819B816115710589F1FB0193838283B1
:100BA000FE0111C04081518102811381481759070C
:100BB000E0F04817590799F4109761F012960C93DA
:100BC000129713961C933296CF01DF91CF911F910C
:100BD0000F9108950093CC011093CD01F4CF21150E
:100BE000310551F04217530738F0A901DB019A0192
:100BF000BD01DF01F801C1CFEF01F9CF9093CD0125
:100C00008093CC01CDCFFE01E20FF31F819391932E
:100C10002250310939832883D7CF2091CA013091DE
:100C2000CB01232B41F42091020130910301309339
:100C3000CB012093CA0120910001309101012115BF
:100C4000310541F42DB73EB74091040150910501A3
:100C5000241B350BE091CA01F091CB01E217F30799
:100C6000A0F42E1B3F0B2817390778F0AC014E5F1C
:100C70005F4F2417350748F04E0F5F1F5093CB018D
:100C80004093CA01819391939FCFF0E0E0E09CCF25
:100C9000CF93DF930097E9F0FC0132971382128221
:100CA000A091CC01B091CD01ED0130E020E0109792
:100CB000A1F420813181820F931F2091CA013091CC
:100CC000CB012817390709F061C0F093CB01E093FD
:100CD000CA01DF91CF910895EA01CE17DF07E8F549
:100CE0004A815B819E0141155105B1F7E901FB8302
:100CF000EA8349915991C40FD51FEC17FD0761F4A0
:100D0000808191810296840F951FE90199838883E0
:100D1000828193819B838A83F0E0E0E012968D913B
:100D20009C9113970097B9F52D913C911197CD01A6
:100D30000296820F931F2091CA013091CB01281790
:100D4000390739F6309751F51092CD011092CC0148
:100D5000B093CB01A093CA01BCCFD383C28340819F
:100D60005181840F951FC817D90761F44E5F5F4FFB
:100D700088819981480F591F518340838A819B81C3
:100D8000938382832115310509F0B0CFF093CD0113
:100D9000E093CC019ECFFD01DC01C0CF1382128213
:100DA000D7CFB0E0A0E0E7EDF6E00C9471058C0140
:100DB000009751F4CB010E94AC058C01C801CDB75E
:100DC000DEB7E0E10C948D05FC01E60FF71F9C01F6
:100DD00022503109E217F30708F49DC0D901CD91E3
:100DE000DC911197C617D70798F0C530D10530F3BD
:100DF000CE0104978617970708F3C61BD70B2297D7
:100E0000C193D1936D937C93CF010E944806D6CFB6
:100E10005B01AC1ABD0A4C018C0E9D1EA091CC0149
:100E2000B091CD01512C412CF12CE12C109731F5D2
:100E30008091CA019091CB018815990509F05CC099
:100E40004616570608F058C08091000190910101A4
:100E5000009741F48DB79EB7409104015091050170
:100E6000841B950BE817F90708F055C0F093CB01E8
:100E7000E093CA01F90171836083A0CF8D919C91A9
:100E8000119712966C90129713967C901397A81551
:100E9000B90559F56C0142E0C40ED11CCA14DB043B
:100EA00020F1AC014A195B09DA011296159780F01E
:100EB0006282738251834083D9016D937C93E114E4
:100EC000F10471F0D7011396FC93EE93129776CF4D
:100ED00022968C0F9D1FF90191838083F301EFCF40
:100EE000F093CD01E093CC0169CF4816590608F480
:100EF0002C017D01D3019ACFCB010E94AC057C016E
:100F0000009749F0AE01B8010E948E07C8010E9407
:100F10004806870153CF10E000E050CFFB01DC0111
:100F200002C001900D9241505040D8F70895FB0146
:100F3000DC0101900D920020E1F70895F894FFCFB5
:100F40000000CE018000000000006D01B400FA0036
:100F5000BA012B0109011D010D0A004100420000E8
:00000001FF
